{
    "contractName": "ChainRegistry",
    "abi": [
        {
            "inputs": [
                {
                    "internalType": "address",
                    "name": "initialAuthority",
                    "type": "address"
                }
            ],
            "stateMutability": "nonpayable",
            "type": "constructor"
        },
        {
            "inputs": [
                {
                    "internalType": "address",
                    "name": "authority",
                    "type": "address"
                }
            ],
            "name": "AccessManagedInvalidAuthority",
            "type": "error"
        },
        {
            "inputs": [
                {
                    "internalType": "address",
                    "name": "caller",
                    "type": "address"
                },
                {
                    "internalType": "uint32",
                    "name": "delay",
                    "type": "uint32"
                }
            ],
            "name": "AccessManagedRequiredDelay",
            "type": "error"
        },
        {
            "inputs": [
                {
                    "internalType": "address",
                    "name": "caller",
                    "type": "address"
                }
            ],
            "name": "AccessManagedUnauthorized",
            "type": "error"
        },
        {
            "inputs": [
                {
                    "internalType": "bytes32",
                    "name": "chainKey",
                    "type": "bytes32"
                }
            ],
            "name": "ChainKeyNotRegistered",
            "type": "error"
        },
        {
            "anonymous": false,
            "inputs": [
                {
                    "indexed": false,
                    "internalType": "address",
                    "name": "authority",
                    "type": "address"
                }
            ],
            "name": "AuthorityUpdated",
            "type": "event"
        },
        {
            "inputs": [
                {
                    "internalType": "string",
                    "name": "rawChainKey",
                    "type": "string"
                }
            ],
            "name": "addCOSMWChainKey",
            "outputs": [],
            "stateMutability": "nonpayable",
            "type": "function"
        },
        {
            "inputs": [
                {
                    "internalType": "bytes32",
                    "name": "chainKey",
                    "type": "bytes32"
                }
            ],
            "name": "addChainKey",
            "outputs": [],
            "stateMutability": "nonpayable",
            "type": "function"
        },
        {
            "inputs": [
                {
                    "internalType": "uint256",
                    "name": "rawChainKey",
                    "type": "uint256"
                }
            ],
            "name": "addEVMChainKey",
            "outputs": [],
            "stateMutability": "nonpayable",
            "type": "function"
        },
        {
            "inputs": [
                {
                    "internalType": "string",
                    "name": "chainType",
                    "type": "string"
                },
                {
                    "internalType": "bytes32",
                    "name": "rawChainKey",
                    "type": "bytes32"
                }
            ],
            "name": "addOtherChainType",
            "outputs": [],
            "stateMutability": "nonpayable",
            "type": "function"
        },
        {
            "inputs": [
                {
                    "internalType": "string",
                    "name": "rawChainKey",
                    "type": "string"
                }
            ],
            "name": "addSOLChainKey",
            "outputs": [],
            "stateMutability": "nonpayable",
            "type": "function"
        },
        {
            "inputs": [],
            "name": "authority",
            "outputs": [
                {
                    "internalType": "address",
                    "name": "",
                    "type": "address"
                }
            ],
            "stateMutability": "view",
            "type": "function"
        },
        {
            "inputs": [
                {
                    "internalType": "uint256",
                    "name": "index",
                    "type": "uint256"
                }
            ],
            "name": "getChainKeyAt",
            "outputs": [
                {
                    "internalType": "bytes32",
                    "name": "",
                    "type": "bytes32"
                }
            ],
            "stateMutability": "view",
            "type": "function"
        },
        {
            "inputs": [
                {
                    "internalType": "string",
                    "name": "rawChainKey",
                    "type": "string"
                }
            ],
            "name": "getChainKeyCOSMW",
            "outputs": [
                {
                    "internalType": "bytes32",
                    "name": "",
                    "type": "bytes32"
                }
            ],
            "stateMutability": "pure",
            "type": "function"
        },
        {
            "inputs": [],
            "name": "getChainKeyCount",
            "outputs": [
                {
                    "internalType": "uint256",
                    "name": "",
                    "type": "uint256"
                }
            ],
            "stateMutability": "view",
            "type": "function"
        },
        {
            "inputs": [
                {
                    "internalType": "uint256",
                    "name": "rawChainKey",
                    "type": "uint256"
                }
            ],
            "name": "getChainKeyEVM",
            "outputs": [
                {
                    "internalType": "bytes32",
                    "name": "",
                    "type": "bytes32"
                }
            ],
            "stateMutability": "pure",
            "type": "function"
        },
        {
            "inputs": [
                {
                    "internalType": "string",
                    "name": "chainType",
                    "type": "string"
                },
                {
                    "internalType": "bytes32",
                    "name": "rawChainKey",
                    "type": "bytes32"
                }
            ],
            "name": "getChainKeyOther",
            "outputs": [
                {
                    "internalType": "bytes32",
                    "name": "",
                    "type": "bytes32"
                }
            ],
            "stateMutability": "pure",
            "type": "function"
        },
        {
            "inputs": [
                {
                    "internalType": "string",
                    "name": "rawChainKey",
                    "type": "string"
                }
            ],
            "name": "getChainKeySOL",
            "outputs": [
                {
                    "internalType": "bytes32",
                    "name": "",
                    "type": "bytes32"
                }
            ],
            "stateMutability": "pure",
            "type": "function"
        },
        {
            "inputs": [],
            "name": "getChainKeys",
            "outputs": [
                {
                    "internalType": "bytes32[]",
                    "name": "",
                    "type": "bytes32[]"
                }
            ],
            "stateMutability": "view",
            "type": "function"
        },
        {
            "inputs": [
                {
                    "internalType": "uint256",
                    "name": "index",
                    "type": "uint256"
                },
                {
                    "internalType": "uint256",
                    "name": "count",
                    "type": "uint256"
                }
            ],
            "name": "getChainKeysFrom",
            "outputs": [
                {
                    "internalType": "bytes32[]",
                    "name": "items",
                    "type": "bytes32[]"
                }
            ],
            "stateMutability": "view",
            "type": "function"
        },
        {
            "inputs": [
                {
                    "internalType": "bytes32",
                    "name": "chainKey",
                    "type": "bytes32"
                }
            ],
            "name": "isChainKeyRegistered",
            "outputs": [
                {
                    "internalType": "bool",
                    "name": "",
                    "type": "bool"
                }
            ],
            "stateMutability": "view",
            "type": "function"
        },
        {
            "inputs": [],
            "name": "isConsumingScheduledOp",
            "outputs": [
                {
                    "internalType": "bytes4",
                    "name": "",
                    "type": "bytes4"
                }
            ],
            "stateMutability": "view",
            "type": "function"
        },
        {
            "inputs": [
                {
                    "internalType": "bytes32",
                    "name": "chainKey",
                    "type": "bytes32"
                }
            ],
            "name": "removeChainKey",
            "outputs": [],
            "stateMutability": "nonpayable",
            "type": "function"
        },
        {
            "inputs": [
                {
                    "internalType": "bytes32",
                    "name": "chainKey",
                    "type": "bytes32"
                }
            ],
            "name": "revertIfChainKeyNotRegistered",
            "outputs": [],
            "stateMutability": "view",
            "type": "function"
        },
        {
            "inputs": [
                {
                    "internalType": "address",
                    "name": "newAuthority",
                    "type": "address"
                }
            ],
            "name": "setAuthority",
            "outputs": [],
            "stateMutability": "nonpayable",
            "type": "function"
        }
    ],
    "bytecode": "608034609957601f610bf538819003918201601f19168301916001600160401b03831184841017609d57808492602094604052833981010312609957516001600160a01b038116908190036099575f80546001600160a01b031916821790556040519081527f2f658b440c35314f52658ea8a740e05b284cdc84dc9ae01e891f21b8933e7cad90602090a1604051610b4390816100b28239f35b5f80fd5b634e487b7160e01b5f52604160045260245ffdfe60806040526004361015610011575f80fd5b5f3560e01c80631b69b1761461050557806333b2306f146104d15780633cd9cf91146104905780634aae825a146104645780635411d37f14610443578063631c15ba146104015780637a9e5e4b146103615780638a0a736d1461033f5780638ac1b576146103225780638ef8c93b146102dc5780638fb3603714610299578063910201d014610270578063985c272c1461024a578063b2e3454814610231578063b95ad7dc146101ad578063bf7e214f14610186578063ceff7e0d14610159578063e6da1c34146101315763f044c7dd146100ea575f80fd5b3461012d57602036600319011261012d5760043567ffffffffffffffff811161012d576101256101206020923690600401610571565b610813565b604051908152f35b5f80fd5b3461012d57602036600319011261012d5761014c363361085a565b610157600435610a48565b005b3461012d57602036600319011261012d5760206101776004356109ab565b90549060031b1c604051908152f35b3461012d575f36600319011261012d575f546040516001600160a01b039091168152602090f35b3461012d575f36600319011261012d5760405180602060015491828152019060015f527fb10e2d527612073b26eecdfd717e6a320cf44b4afac2b0732d9fcbe2b7fa0cf6905f5b81811061021b576102178561020b8187038261053b565b604051918291826105c7565b0390f35b82548452602090930192600192830192016101f4565b3461012d57602061012561024436610600565b906107da565b3461012d57602036600319011261012d57610265363361085a565b6101576004356109d8565b3461012d5761015761029461028436610600565b9061028f363361085a565b6107da565b6109d8565b3461012d575f36600319011261012d575f5460a01c60ff16156102d4576020638fb3603760e01b5b6040516001600160e01b03199091168152f35b60205f6102c1565b3461012d57602036600319011261012d5760043567ffffffffffffffff811161012d57610294610313610157923690600401610571565b61031d363361085a565b610656565b3461012d575f36600319011261012d576020600154604051908152f35b3461012d57604036600319011261012d5761021761020b60243560043561070a565b3461012d57602036600319011261012d576004356001600160a01b0381169081810361012d575f54906001600160a01b03821633036103ef573b156103dc576001600160a01b03191681175f556040519081527f2f658b440c35314f52658ea8a740e05b284cdc84dc9ae01e891f21b8933e7cad90602090a1005b506361798f2f60e11b5f5260045260245ffd5b62d1953b60e31b5f523360045260245ffd5b3461012d57602036600319011261012d5760043561042a815f52600260205260405f2054151590565b1561043157005b6304fb527960e51b5f5260045260245ffd5b3461012d57602036600319011261012d57602061012560043561028f6106b0565b3461012d57602036600319011261012d5761047f363361085a565b61015761029460043561028f6106b0565b3461012d57602036600319011261012d5760043567ffffffffffffffff811161012d576102946104c7610157923690600401610571565b610120363361085a565b3461012d57602036600319011261012d5760206104fb6004355f52600260205260405f2054151590565b6040519015158152f35b3461012d57602036600319011261012d5760043567ffffffffffffffff811161012d5761012561031d6020923690600401610571565b90601f8019910116810190811067ffffffffffffffff82111761055d57604052565b634e487b7160e01b5f52604160045260245ffd5b81601f8201121561012d5780359067ffffffffffffffff821161055d57604051926105a6601f8401601f19166020018561053b565b8284526020838301011161012d57815f926020809301838601378301015290565b60206040818301928281528451809452019201905f5b8181106105ea5750505090565b82518452602093840193909201916001016105dd565b604060031982011261012d576004359067ffffffffffffffff821161012d5761062b91600401610571565b9060243590565b805180835260209291819084018484015e5f828201840152601f01601f1916010190565b6106ad90604051610685816106776020820194602086526040830190610632565b03601f19810183528261053b565b51902060405161069660408261053b565b6005815264434f534d5760d81b60208201526107da565b90565b604051906106bf60408361053b565b600382526245564d60e81b6020830152565b67ffffffffffffffff811161055d5760051b60200190565b919082018092116106f657565b634e487b7160e01b5f52601160045260245ffd5b90600154808310156107bf578061072183856106e9565b116107ae575b50610731816106d1565b9161073f604051938461053b565b818352601f1961074e836106d1565b013660208501375f5b8281106107645750505090565b61077661077182846106e9565b6109ab565b90549060031b1c90845181101561079a5760019160208260051b8701015201610757565b634e487b7160e01b5f52603260045260245ffd5b828103915081116106f6575f610727565b5050506040516107d060208261053b565b5f81525f36813790565b9061080d60405180926107f96020830195604087526060840190610632565b90604083015203601f19810183528261053b565b51902090565b6106ad90604051610834816106776020820194602086526040830190610632565b51902060405161084560408261053b565b600381526214d3d360ea1b60208201526107da565b5f805490926001600160a01b03821692916004821061012d575f5f9060405f815196602088019063b700961360e01b825260018060a01b03169788602482015230604482015263ffffffff60e01b8335166064820152606481526108bf60848261053b565b828052826020525190895afa610998575b156108de575b505050505050565b63ffffffff16156109865760ff60a01b1916600160a01b175f55823b1561012d576064925f9283604051958680958194634a63ebf760e11b83526004830152604060248301528060448301528084848401378181018301849052601f01601f191681010301925af1801561097b57610968575b50805460ff60a01b191690555f80808080806108d6565b61097491505f9061053b565b5f5f610951565b6040513d5f823e3d90fd5b8262d1953b60e31b5f5260045260245ffd5b50505f516020518060201c1502906108d0565b60015481101561079a5760015f5260205f2001905f90565b805482101561079a575f5260205f2001905f90565b805f52600260205260405f2054155f14610a43576001546801000000000000000081101561055d57610a2c610a1682600185940160015560016109c3565b819391549060031b91821b915f19901b19161790565b9055600154905f52600260205260405f2055600190565b505f90565b5f818152600260205260409020548015610b07575f1981018181116106f6576001545f198101919082116106f657818103610acf575b5050506001548015610abb575f1901610a988160016109c3565b8154905f199060031b1b191690556001555f5260026020525f6040812055600190565b634e487b7160e01b5f52603160045260245ffd5b610af1610ae0610a169360016109c3565b90549060031b1c92839260016109c3565b90555f52600260205260405f20555f8080610a7e565b50505f9056fea2646970667358221220901c4011b39a5608a687a3bbebf49483d4a8d9eb5f9eb6b5483825749624a50164736f6c634300081e0033",
    "sourcePath": "/home/answorld/repos/CL8Y-Bridge-EVM-smartcontracts/src/ChainRegistry.sol",
    "compiler": {
        "name": "solc",
        "version": "0.8.30+commit.73712a01"
    },
    "functionHashes": {
        "addCOSMWChainKey(string)": "8ef8c93b",
        "addChainKey(bytes32)": "985c272c",
        "addEVMChainKey(uint256)": "4aae825a",
        "addOtherChainType(string,bytes32)": "910201d0",
        "addSOLChainKey(string)": "3cd9cf91",
        "authority()": "bf7e214f",
        "getChainKeyAt(uint256)": "ceff7e0d",
        "getChainKeyCOSMW(string)": "1b69b176",
        "getChainKeyCount()": "8ac1b576",
        "getChainKeyEVM(uint256)": "5411d37f",
        "getChainKeyOther(string,bytes32)": "b2e34548",
        "getChainKeySOL(string)": "f044c7dd",
        "getChainKeys()": "b95ad7dc",
        "getChainKeysFrom(uint256,uint256)": "8a0a736d",
        "isChainKeyRegistered(bytes32)": "33b2306f",
        "isConsumingScheduledOp()": "8fb36037",
        "removeChainKey(bytes32)": "e6da1c34",
        "revertIfChainKeyNotRegistered(bytes32)": "631c15ba",
        "setAuthority(address)": "7a9e5e4b"
    },
    "gasEstimates": {
        "creation": {
            "codeDepositCost": "576600",
            "executionCost": "infinite",
            "totalCost": "infinite"
        },
        "external": {
            "addCOSMWChainKey(string)": "infinite",
            "addChainKey(bytes32)": "infinite",
            "addEVMChainKey(uint256)": "infinite",
            "addOtherChainType(string,bytes32)": "infinite",
            "addSOLChainKey(string)": "infinite",
            "authority()": "2601",
            "getChainKeyAt(uint256)": "4828",
            "getChainKeyCOSMW(string)": "infinite",
            "getChainKeyCount()": "2424",
            "getChainKeyEVM(uint256)": "infinite",
            "getChainKeyOther(string,bytes32)": "infinite",
            "getChainKeySOL(string)": "infinite",
            "getChainKeys()": "infinite",
            "getChainKeysFrom(uint256,uint256)": "infinite",
            "isChainKeyRegistered(bytes32)": "2362",
            "isConsumingScheduledOp()": "2534",
            "removeChainKey(bytes32)": "infinite",
            "revertIfChainKeyNotRegistered(bytes32)": "2465",
            "setAuthority(address)": "28234"
        }
    }
}