{
    "contractName": "Cl8YBridge",
    "abi": [
        {
            "inputs": [
                {
                    "internalType": "address",
                    "name": "initialAuthority",
                    "type": "address"
                },
                {
                    "internalType": "contract TokenRegistry",
                    "name": "_tokenRegistry",
                    "type": "address"
                },
                {
                    "internalType": "contract MintBurn",
                    "name": "_mintBurn",
                    "type": "address"
                },
                {
                    "internalType": "contract LockUnlock",
                    "name": "_lockUnlock",
                    "type": "address"
                }
            ],
            "stateMutability": "nonpayable",
            "type": "constructor"
        },
        {
            "inputs": [
                {
                    "internalType": "address",
                    "name": "authority",
                    "type": "address"
                }
            ],
            "name": "AccessManagedInvalidAuthority",
            "type": "error"
        },
        {
            "inputs": [
                {
                    "internalType": "address",
                    "name": "caller",
                    "type": "address"
                },
                {
                    "internalType": "uint32",
                    "name": "delay",
                    "type": "uint32"
                }
            ],
            "name": "AccessManagedRequiredDelay",
            "type": "error"
        },
        {
            "inputs": [
                {
                    "internalType": "address",
                    "name": "caller",
                    "type": "address"
                }
            ],
            "name": "AccessManagedUnauthorized",
            "type": "error"
        },
        {
            "inputs": [
                {
                    "internalType": "bytes32",
                    "name": "withdrawHash",
                    "type": "bytes32"
                }
            ],
            "name": "WithdrawHashAlreadyExists",
            "type": "error"
        },
        {
            "anonymous": false,
            "inputs": [
                {
                    "indexed": false,
                    "internalType": "address",
                    "name": "authority",
                    "type": "address"
                }
            ],
            "name": "AuthorityUpdated",
            "type": "event"
        },
        {
            "anonymous": false,
            "inputs": [
                {
                    "indexed": true,
                    "internalType": "bytes32",
                    "name": "destChainKey",
                    "type": "bytes32"
                },
                {
                    "indexed": true,
                    "internalType": "bytes32",
                    "name": "destAccount",
                    "type": "bytes32"
                },
                {
                    "indexed": true,
                    "internalType": "address",
                    "name": "token",
                    "type": "address"
                },
                {
                    "indexed": false,
                    "internalType": "uint256",
                    "name": "amount",
                    "type": "uint256"
                },
                {
                    "indexed": false,
                    "internalType": "uint256",
                    "name": "nonce",
                    "type": "uint256"
                }
            ],
            "name": "DepositRequest",
            "type": "event"
        },
        {
            "anonymous": false,
            "inputs": [
                {
                    "indexed": true,
                    "internalType": "bytes32",
                    "name": "srcChainKey",
                    "type": "bytes32"
                },
                {
                    "indexed": true,
                    "internalType": "address",
                    "name": "token",
                    "type": "address"
                },
                {
                    "indexed": true,
                    "internalType": "address",
                    "name": "to",
                    "type": "address"
                },
                {
                    "indexed": false,
                    "internalType": "uint256",
                    "name": "amount",
                    "type": "uint256"
                },
                {
                    "indexed": false,
                    "internalType": "uint256",
                    "name": "nonce",
                    "type": "uint256"
                }
            ],
            "name": "WithdrawRequest",
            "type": "event"
        },
        {
            "inputs": [],
            "name": "authority",
            "outputs": [
                {
                    "internalType": "address",
                    "name": "",
                    "type": "address"
                }
            ],
            "stateMutability": "view",
            "type": "function"
        },
        {
            "inputs": [
                {
                    "internalType": "bytes32",
                    "name": "destChainKey",
                    "type": "bytes32"
                },
                {
                    "internalType": "bytes32",
                    "name": "destAccount",
                    "type": "bytes32"
                },
                {
                    "internalType": "address",
                    "name": "token",
                    "type": "address"
                },
                {
                    "internalType": "uint256",
                    "name": "amount",
                    "type": "uint256"
                }
            ],
            "name": "deposit",
            "outputs": [],
            "stateMutability": "nonpayable",
            "type": "function"
        },
        {
            "inputs": [],
            "name": "depositNonce",
            "outputs": [
                {
                    "internalType": "uint256",
                    "name": "",
                    "type": "uint256"
                }
            ],
            "stateMutability": "view",
            "type": "function"
        },
        {
            "inputs": [
                {
                    "components": [
                        {
                            "internalType": "bytes32",
                            "name": "destChainKey",
                            "type": "bytes32"
                        },
                        {
                            "internalType": "bytes32",
                            "name": "destTokenAddress",
                            "type": "bytes32"
                        },
                        {
                            "internalType": "address",
                            "name": "from",
                            "type": "address"
                        },
                        {
                            "internalType": "uint256",
                            "name": "amount",
                            "type": "uint256"
                        },
                        {
                            "internalType": "uint256",
                            "name": "nonce",
                            "type": "uint256"
                        }
                    ],
                    "internalType": "struct Cl8YBridge.Deposit",
                    "name": "depositRequest",
                    "type": "tuple"
                }
            ],
            "name": "getDepositHash",
            "outputs": [
                {
                    "internalType": "bytes32",
                    "name": "depositHash",
                    "type": "bytes32"
                }
            ],
            "stateMutability": "pure",
            "type": "function"
        },
        {
            "inputs": [
                {
                    "components": [
                        {
                            "internalType": "bytes32",
                            "name": "srcChainKey",
                            "type": "bytes32"
                        },
                        {
                            "internalType": "address",
                            "name": "token",
                            "type": "address"
                        },
                        {
                            "internalType": "address",
                            "name": "to",
                            "type": "address"
                        },
                        {
                            "internalType": "uint256",
                            "name": "amount",
                            "type": "uint256"
                        },
                        {
                            "internalType": "uint256",
                            "name": "nonce",
                            "type": "uint256"
                        }
                    ],
                    "internalType": "struct Cl8YBridge.Withdraw",
                    "name": "withdrawRequest",
                    "type": "tuple"
                }
            ],
            "name": "getWithdrawHash",
            "outputs": [
                {
                    "internalType": "bytes32",
                    "name": "withdrawHash",
                    "type": "bytes32"
                }
            ],
            "stateMutability": "pure",
            "type": "function"
        },
        {
            "inputs": [],
            "name": "isConsumingScheduledOp",
            "outputs": [
                {
                    "internalType": "bytes4",
                    "name": "",
                    "type": "bytes4"
                }
            ],
            "stateMutability": "view",
            "type": "function"
        },
        {
            "inputs": [],
            "name": "lockUnlock",
            "outputs": [
                {
                    "internalType": "contract LockUnlock",
                    "name": "",
                    "type": "address"
                }
            ],
            "stateMutability": "view",
            "type": "function"
        },
        {
            "inputs": [],
            "name": "mintBurn",
            "outputs": [
                {
                    "internalType": "contract MintBurn",
                    "name": "",
                    "type": "address"
                }
            ],
            "stateMutability": "view",
            "type": "function"
        },
        {
            "inputs": [
                {
                    "internalType": "address",
                    "name": "newAuthority",
                    "type": "address"
                }
            ],
            "name": "setAuthority",
            "outputs": [],
            "stateMutability": "nonpayable",
            "type": "function"
        },
        {
            "inputs": [],
            "name": "tokenRegistry",
            "outputs": [
                {
                    "internalType": "contract TokenRegistry",
                    "name": "",
                    "type": "address"
                }
            ],
            "stateMutability": "view",
            "type": "function"
        },
        {
            "inputs": [
                {
                    "internalType": "bytes32",
                    "name": "srcChainKey",
                    "type": "bytes32"
                },
                {
                    "internalType": "address",
                    "name": "token",
                    "type": "address"
                },
                {
                    "internalType": "address",
                    "name": "to",
                    "type": "address"
                },
                {
                    "internalType": "uint256",
                    "name": "amount",
                    "type": "uint256"
                },
                {
                    "internalType": "uint256",
                    "name": "nonce",
                    "type": "uint256"
                }
            ],
            "name": "withdraw",
            "outputs": [],
            "stateMutability": "nonpayable",
            "type": "function"
        }
    ],
    "bytecode": "60e03461013157601f6110f638819003918201601f19168301916001600160401b03831184841017610135578084926080946040528339810103126101315780516001600160a01b03811691908290036101315760208101516001600160a01b0381168103610131576040820151916001600160a01b03831683036101315760600151926001600160a01b0384168403610131575f80546001600160a01b031916821790556040519081527f2f658b440c35314f52658ea8a740e05b284cdc84dc9ae01e891f21b8933e7cad90602090a15f60055560c05260805260a052604051610fac908161014a823960805181818161059401528181610b1c0152610da8015260a0518181816106db01528181610bef0152610de9015260c05181818161018f015281816103ab01526109360152f35b5f80fd5b634e487b7160e01b5f52604160045260245ffdfe6080806040526004361015610012575f80fd5b5f905f358060e01c9182630f3fe22f14610dd7575081631221c03814610d935781633309117b1461091657816356aca36f14610309575080637a9e5e4b1461026257806387033f27146102035780638fb36037146101be5780639d23c4c714610179578063bf7e214f14610152578063de35f5cb146101345763e81b98eb14610099575f80fd5b346101315760a0366003190112610131575060206040516100b981610e44565b600435908181528281019060243582526100d1610e18565b9060408101918252608060608201916064358352019160843583526040519386850195865251604085015260018060a01b0390511660608401525160808301525160a082015260a0815261012660c082610e74565b519020604051908152f35b80fd5b50346101315780600319360112610131576020600554604051908152f35b5034610131578060031936011261013157546040516001600160a01b039091168152602090f35b50346101315780600319360112610131576040517f00000000000000000000000000000000000000000000000000000000000000006001600160a01b03168152602090f35b5034610131578060031936011261013157805460a01c60ff16156101fb57506020638fb3603760e01b5b6040516001600160e01b03199091168152f35b6020906101e8565b50346101315760a03660031901126101315750602061025a60405161022781610e44565b6004358152610234610e2e565b83820152610240610e18565b604082015260643560608201526084356080820152610eae565b604051908152f35b5034610131576020366003190112610131576004356001600160a01b03811690818103610305578254906001600160a01b03821633036102f3573b156102df576001600160a01b031916811782556040519081527f2f658b440c35314f52658ea8a740e05b284cdc84dc9ae01e891f21b8933e7cad90602090a180f35b6361798f2f60e11b83526004829052602483fd5b62d1953b60e31b845233600452602484fd5b8280fd5b9050346108ed5760a03660031901126108ed57600435610327610e2e565b90610330610e18565b8454909360643591608435916001600160a01b03821691903660041161080b578860408a80938251602081019163b700961360e01b835233602483015230604483015263ffffffff60e01b16606482015260648152610390608482610e74565b828052826020525190875afa610903575b1561084f575b50507f00000000000000000000000000000000000000000000000000000000000000006001600160a01b0316959050853b1561083657604051636d8981f560e11b81526001600160a01b038616600482015260248101859052879081816044818b5afa80156106575761083a575b5050853b156108365760405163190716a560e01b81526001600160a01b038616600482015260248101849052879081816044818b5afa801561065757610821575b50506040519461046586610e44565b8486526001600160a01b03818116602088018181529184166040808a0182815260608b0189815260808c01898152939c949b949590928e906104a687610eae565b918281526002602052205461080f579060408f836104c8600498979695610f05565b50815260066020522095518655516001860180546001600160a01b03199081166001600160a01b03938416179091559151600287018054909316911617905551600384015551910155803b1561080b57604051635bc4e35160e01b81526001600160a01b0383166004820152602481018690528990818160448183875af18015610657576107f6575b505060405163543b3af760e01b815260048101889052602081602481855afa9081156107eb578a916107cc575b5060028110156107b857899392919061066657507f00000000000000000000000000000000000000000000000000000000000000006001600160a01b031691823b1561066257604051636361ddf360e11b81526001600160a01b03918216600482015291166024820152604481018590529082908290606490829084905af180156106575761063e575b50507f3c4ed62fb7ce991dc39e73806120e885618eb76dd87482feb184ede130d42c33916040915b82519182526020820152a480f35b8161064891610e74565b61065357855f610608565b8580fd5b6040513d84823e3d90fd5b8380fd5b6024919293506020906040519283809263543b3af760e01b82528b60048301525afa9081156107ad57899161077e575b50600281101561076a57906001899392146106d9575b5050507f3c4ed62fb7ce991dc39e73806120e885618eb76dd87482feb184ede130d42c3391604091610630565b7f00000000000000000000000000000000000000000000000000000000000000006001600160a01b031691823b15610662576040516359508f8f60e01b81526001600160a01b03918216600482015291166024820152604481018590529082908290606490829084905af1801561065757610755575b806106ac565b8161075f91610e74565b61065357855f61074f565b634e487b7160e01b89526021600452602489fd5b6107a0915060203d6020116107a6575b6107988183610e74565b810190610e96565b5f610696565b503d61078e565b6040513d8b823e3d90fd5b634e487b7160e01b8a52602160045260248afd5b6107e5915060203d6020116107a6576107988183610e74565b5f61057e565b6040513d8c823e3d90fd5b8161080091610e74565b61080b57885f610551565b8880fd5b63755354f560e01b8f5260045260248efd5b8161082b91610e74565b61083657865f610456565b8680fd5b8161084491610e74565b61083657865f610415565b63ffffffff16156108f15760ff60a01b1916600160a01b1787558690803b156108ed57816040518092634a63ebf760e11b8252336004830152604060248301523660448301523683606484013782606436840101528183606482601f19601f36011681010301925af18015610657576108d8575b5050855460ff60a01b191686555f80806103a7565b816108e291610e74565b61065357855f6108c3565b5080fd5b62d1953b60e31b885233600452602488fd5b505087516020518060201c1502906103a1565b8234610d8f576080366003190112610d8f5760043590610934610e18565b7f00000000000000000000000000000000000000000000000000000000000000006001600160a01b0316926064359190843b15610d8f57604051636d8981f560e11b81526001600160a01b0383166004820152602481018290525f81604481895afa8015610d8457610d6f575b50843b156106625760405163190716a560e01b81526001600160a01b0383166004820152602481018490528481604481895afa8015610cef57908591610d5a575b505060405163aa2fc98d60e01b81526001600160a01b038316600482015260248101829052602081604481895afa8015610cef578590610d23575b6080915060055491829160405190610a3482610e44565b8582526020820152336040820152866060820152015260018060a01b0383168092604051908682528360208301527f6c32deb5ceb2242ef18f933e502bf8f557853f7b324d6eef09f6fbc0a2a5b42d604060243593a45f198114610d0f57600101600555843b1561066257604051635bc4e35160e01b81526001600160a01b0383166004820152602481018490528481604481838a5af18015610cef57908591610cfa575b505060405163543b3af760e01b815260048101829052602081602481895afa908115610cef578591610cd0575b506002811015610cbc57610ba8575091925082917f00000000000000000000000000000000000000000000000000000000000000006001600160a01b031691823b15610ba357604051633dae446f60e21b81523360048201526001600160a01b0392909216602483015260448201529082908290606490829084905af1801561065757610b9257505080f35b81610b9c91610e74565b6101315780f35b505050fd5b60209060246040518097819363543b3af760e01b835260048301525afa938415610cb1578394610c90575b506002841015610c7c576001839414610bed575b50505080f35b7f00000000000000000000000000000000000000000000000000000000000000006001600160a01b031691823b15610ba3576040516307750c9f60e41b81523360048201526001600160a01b0392909216602483015260448201529082908290606490829084905af1801561065757610c67575b80610be7565b81610c7191610e74565b610131578082610c61565b634e487b7160e01b83526021600452602483fd5b610caa91945060203d6020116107a6576107988183610e74565b9284610bd3565b6040513d85823e3d90fd5b634e487b7160e01b85526021600452602485fd5b610ce9915060203d6020116107a6576107988183610e74565b86610b06565b6040513d87823e3d90fd5b81610d0491610e74565b610662578386610ad9565b634e487b7160e01b85526011600452602485fd5b506020813d602011610d52575b81610d3d60209383610e74565b81010312610d4e5760809051610a1d565b8480fd5b3d9150610d30565b81610d6491610e74565b6106625783866109e2565b610d7c9194505f90610e74565b5f92856109a1565b6040513d5f823e3d90fd5b5f80fd5b34610d8f575f366003190112610d8f576040517f00000000000000000000000000000000000000000000000000000000000000006001600160a01b03168152602090f35b34610d8f575f366003190112610d8f577f00000000000000000000000000000000000000000000000000000000000000006001600160a01b03168152602090f35b604435906001600160a01b0382168203610d8f57565b602435906001600160a01b0382168203610d8f57565b60a0810190811067ffffffffffffffff821117610e6057604052565b634e487b7160e01b5f52604160045260245ffd5b90601f8019910116810190811067ffffffffffffffff821117610e6057604052565b90816020910312610d8f57516002811015610d8f5790565b604051608060208201928051845260018060a01b03602082015116604084015260018060a01b036040820151166060840152606081015182840152015160a082015260a08152610eff60c082610e74565b51902090565b805f52600260205260405f2054155f14610f715760015468010000000000000000811015610e60576001810180600155811015610f5d57819060015f5260205f200155600154905f52600260205260405f2055600190565b634e487b7160e01b5f52603260045260245ffd5b505f9056fea2646970667358221220412b086a502db135107201b7ebd81ceaf0122fc7c02cefbc44985cf73dc264f364736f6c634300081e0033",
    "sourcePath": "/home/answorld/repos/CL8Y-Bridge-EVM-smartcontracts/src/CL8YBridge.sol",
    "compiler": {
        "name": "solc",
        "version": "0.8.30+commit.73712a01"
    },
    "functionHashes": {
        "authority()": "bf7e214f",
        "deposit(bytes32,bytes32,address,uint256)": "3309117b",
        "depositNonce()": "de35f5cb",
        "getDepositHash((bytes32,bytes32,address,uint256,uint256))": "e81b98eb",
        "getWithdrawHash((bytes32,address,address,uint256,uint256))": "87033f27",
        "isConsumingScheduledOp()": "8fb36037",
        "lockUnlock()": "0f3fe22f",
        "mintBurn()": "1221c038",
        "setAuthority(address)": "7a9e5e4b",
        "tokenRegistry()": "9d23c4c7",
        "withdraw(bytes32,address,address,uint256,uint256)": "56aca36f"
    },
    "gasEstimates": {
        "creation": {
            "codeDepositCost": "802400",
            "executionCost": "infinite",
            "totalCost": "infinite"
        },
        "external": {
            "authority()": "2466",
            "deposit(bytes32,bytes32,address,uint256)": "infinite",
            "depositNonce()": "2467",
            "getDepositHash((bytes32,bytes32,address,uint256,uint256))": "959",
            "getWithdrawHash((bytes32,address,address,uint256,uint256))": "969",
            "isConsumingScheduledOp()": "2469",
            "lockUnlock()": "infinite",
            "mintBurn()": "infinite",
            "setAuthority(address)": "28215",
            "tokenRegistry()": "infinite",
            "withdraw(bytes32,address,address,uint256,uint256)": "infinite"
        }
    }
}