{
    "contractName": "MintBurn",
    "abi": [
        {
            "inputs": [
                {
                    "internalType": "address",
                    "name": "initialAuthority",
                    "type": "address"
                }
            ],
            "stateMutability": "nonpayable",
            "type": "constructor"
        },
        {
            "inputs": [
                {
                    "internalType": "address",
                    "name": "authority",
                    "type": "address"
                }
            ],
            "name": "AccessManagedInvalidAuthority",
            "type": "error"
        },
        {
            "inputs": [
                {
                    "internalType": "address",
                    "name": "caller",
                    "type": "address"
                },
                {
                    "internalType": "uint32",
                    "name": "delay",
                    "type": "uint32"
                }
            ],
            "name": "AccessManagedRequiredDelay",
            "type": "error"
        },
        {
            "inputs": [
                {
                    "internalType": "address",
                    "name": "caller",
                    "type": "address"
                }
            ],
            "name": "AccessManagedUnauthorized",
            "type": "error"
        },
        {
            "inputs": [],
            "name": "InvalidBurn",
            "type": "error"
        },
        {
            "inputs": [],
            "name": "InvalidMint",
            "type": "error"
        },
        {
            "inputs": [],
            "name": "ReentrancyGuardReentrantCall",
            "type": "error"
        },
        {
            "anonymous": false,
            "inputs": [
                {
                    "indexed": false,
                    "internalType": "address",
                    "name": "authority",
                    "type": "address"
                }
            ],
            "name": "AuthorityUpdated",
            "type": "event"
        },
        {
            "inputs": [],
            "name": "authority",
            "outputs": [
                {
                    "internalType": "address",
                    "name": "",
                    "type": "address"
                }
            ],
            "stateMutability": "view",
            "type": "function"
        },
        {
            "inputs": [
                {
                    "internalType": "address",
                    "name": "from",
                    "type": "address"
                },
                {
                    "internalType": "address",
                    "name": "token",
                    "type": "address"
                },
                {
                    "internalType": "uint256",
                    "name": "amount",
                    "type": "uint256"
                }
            ],
            "name": "burn",
            "outputs": [],
            "stateMutability": "nonpayable",
            "type": "function"
        },
        {
            "inputs": [],
            "name": "isConsumingScheduledOp",
            "outputs": [
                {
                    "internalType": "bytes4",
                    "name": "",
                    "type": "bytes4"
                }
            ],
            "stateMutability": "view",
            "type": "function"
        },
        {
            "inputs": [
                {
                    "internalType": "address",
                    "name": "to",
                    "type": "address"
                },
                {
                    "internalType": "address",
                    "name": "token",
                    "type": "address"
                },
                {
                    "internalType": "uint256",
                    "name": "amount",
                    "type": "uint256"
                }
            ],
            "name": "mint",
            "outputs": [],
            "stateMutability": "nonpayable",
            "type": "function"
        },
        {
            "inputs": [
                {
                    "internalType": "address",
                    "name": "newAuthority",
                    "type": "address"
                }
            ],
            "name": "setAuthority",
            "outputs": [],
            "stateMutability": "nonpayable",
            "type": "function"
        }
    ],
    "bytecode": "608034609d57601f61074338819003918201601f19168301916001600160401b0383118484101760a157808492602094604052833981010312609d57516001600160a01b03811690819003609d575f80546001600160a01b031916821790556040519081527f2f658b440c35314f52658ea8a740e05b284cdc84dc9ae01e891f21b8933e7cad90602090a16001805560405161068d90816100b68239f35b5f80fd5b634e487b7160e01b5f52604160045260245ffdfe6080806040526004361015610012575f80fd5b5f905f3560e01c9081637a9e5e4b146103e3575080638fb36037146103a0578063bf7e214f14610379578063c6c3bbe6146102005763f6b911bc14610055575f80fd5b346101fd5761006336610481565b9061006e36336104f1565b610076610637565b6040516370a0823160e01b81526001600160a01b03848116600483018190529194921692918590602086602481885afa9586156101b75782966101c6575b50843b156101c25760405163079cc67960e41b81526001600160a01b0391909116600482015260248101849052818160448183895af180156101b75761019e575b50506020906024604051809581936370a0823160e01b835260048301525afa91821561019357849261015b575b5082039182116101475703610138576001805580f35b63eeddf6ab60e01b8152600490fd5b634e487b7160e01b83526011600452602483fd5b9091506020813d60201161018b575b81610177602093836104bb565b810103126101875751905f610122565b5f80fd5b3d915061016a565b6040513d86823e3d90fd5b816101a8916104bb565b6101b357845f6100f5565b8480fd5b6040513d84823e3d90fd5b5080fd5b915094506020813d6020116101f5575b816101e3602093836104bb565b8101031261018757859051945f6100b4565b3d91506101d6565b80fd5b50346101875761020f36610481565b9061021a36336104f1565b610222610637565b6040516370a0823160e01b81526001600160a01b0384811660048301819052919492169291602085602481875afa94851561033a575f95610345575b50833b15610187576040516340c10f1960e01b81526001600160a01b03919091166004820152602481018390525f8160448183885af1801561033a57610324575b506020906024604051809581936370a0823160e01b835260048301525afa9182156101935784926102f0575b50820180921161014757036102e1576001805580f35b63201dc6f560e01b8152600490fd5b9091506020813d60201161031c575b8161030c602093836104bb565b810103126101875751905f6102cb565b3d91506102ff565b6103319195505f906104bb565b5f93602061029f565b6040513d5f823e3d90fd5b9094506020813d602011610371575b81610361602093836104bb565b810103126101875751935f61025e565b3d9150610354565b34610187575f366003190112610187575f546040516001600160a01b039091168152602090f35b34610187575f366003190112610187575f5460a01c60ff16156103db576020638fb3603760e01b5b6040516001600160e01b03199091168152f35b60205f6103c8565b34610187576020366003190112610187576004356001600160a01b0381169190828103610187575f54906001600160a01b038216330361046f573b1561045c576001600160a01b03191682175f559081527f2f658b440c35314f52658ea8a740e05b284cdc84dc9ae01e891f21b8933e7cad90602090a1005b826361798f2f60e11b5f5260045260245ffd5b62d1953b60e31b5f523360045260245ffd5b6060906003190112610187576004356001600160a01b038116810361018757906024356001600160a01b0381168103610187579060443590565b90601f8019910116810190811067ffffffffffffffff8211176104dd57604052565b634e487b7160e01b5f52604160045260245ffd5b5f805490926001600160a01b038216929160048210610187575f5f9060405f815196602088019063b700961360e01b825260018060a01b03169788602482015230604482015263ffffffff60e01b8335166064820152606481526105566084826104bb565b828052826020525190895afa610624575b15610575575b505050505050565b63ffffffff16156106125760ff60a01b1916600160a01b175f55823b15610187576064925f9283604051958680958194634a63ebf760e11b83526004830152604060248301528060448301528084848401378181018301849052601f01601f191681010301925af1801561033a576105ff575b50805460ff60a01b191690555f808080808061056d565b61060b91505f906104bb565b5f5f6105e8565b8262d1953b60e31b5f5260045260245ffd5b50505f516020518060201c150290610567565b600260015414610648576002600155565b633ee5aeb560e01b5f5260045ffdfea2646970667358221220c1c8691e10e47b602b18051c59181706e729422a94cb54fbd56a1c76a677550e64736f6c634300081e0033",
    "sourcePath": "/home/answorld/repos/CL8Y-Bridge-EVM-smartcontracts/src/MintBurn.sol",
    "compiler": {
        "name": "solc",
        "version": "0.8.30+commit.73712a01"
    },
    "functionHashes": {
        "authority()": "bf7e214f",
        "burn(address,address,uint256)": "f6b911bc",
        "isConsumingScheduledOp()": "8fb36037",
        "mint(address,address,uint256)": "c6c3bbe6",
        "setAuthority(address)": "7a9e5e4b"
    },
    "gasEstimates": {
        "creation": {
            "codeDepositCost": "335400",
            "executionCost": "infinite",
            "totalCost": "infinite"
        },
        "external": {
            "authority()": "2328",
            "burn(address,address,uint256)": "infinite",
            "isConsumingScheduledOp()": "2349",
            "mint(address,address,uint256)": "infinite",
            "setAuthority(address)": "28110"
        }
    }
}