{
    "contractName": "LockUnlock",
    "abi": [
        {
            "inputs": [
                {
                    "internalType": "address",
                    "name": "initialAuthority",
                    "type": "address"
                }
            ],
            "stateMutability": "nonpayable",
            "type": "constructor"
        },
        {
            "inputs": [
                {
                    "internalType": "address",
                    "name": "authority",
                    "type": "address"
                }
            ],
            "name": "AccessManagedInvalidAuthority",
            "type": "error"
        },
        {
            "inputs": [
                {
                    "internalType": "address",
                    "name": "caller",
                    "type": "address"
                },
                {
                    "internalType": "uint32",
                    "name": "delay",
                    "type": "uint32"
                }
            ],
            "name": "AccessManagedRequiredDelay",
            "type": "error"
        },
        {
            "inputs": [
                {
                    "internalType": "address",
                    "name": "caller",
                    "type": "address"
                }
            ],
            "name": "AccessManagedUnauthorized",
            "type": "error"
        },
        {
            "inputs": [],
            "name": "InvalidLockFrom",
            "type": "error"
        },
        {
            "inputs": [],
            "name": "InvalidLockThis",
            "type": "error"
        },
        {
            "inputs": [],
            "name": "InvalidUnlockThis",
            "type": "error"
        },
        {
            "inputs": [],
            "name": "InvalidUnlockTo",
            "type": "error"
        },
        {
            "inputs": [],
            "name": "ReentrancyGuardReentrantCall",
            "type": "error"
        },
        {
            "anonymous": false,
            "inputs": [
                {
                    "indexed": false,
                    "internalType": "address",
                    "name": "authority",
                    "type": "address"
                }
            ],
            "name": "AuthorityUpdated",
            "type": "event"
        },
        {
            "inputs": [],
            "name": "authority",
            "outputs": [
                {
                    "internalType": "address",
                    "name": "",
                    "type": "address"
                }
            ],
            "stateMutability": "view",
            "type": "function"
        },
        {
            "inputs": [],
            "name": "isConsumingScheduledOp",
            "outputs": [
                {
                    "internalType": "bytes4",
                    "name": "",
                    "type": "bytes4"
                }
            ],
            "stateMutability": "view",
            "type": "function"
        },
        {
            "inputs": [
                {
                    "internalType": "address",
                    "name": "from",
                    "type": "address"
                },
                {
                    "internalType": "address",
                    "name": "token",
                    "type": "address"
                },
                {
                    "internalType": "uint256",
                    "name": "amount",
                    "type": "uint256"
                }
            ],
            "name": "lock",
            "outputs": [],
            "stateMutability": "nonpayable",
            "type": "function"
        },
        {
            "inputs": [
                {
                    "internalType": "address",
                    "name": "newAuthority",
                    "type": "address"
                }
            ],
            "name": "setAuthority",
            "outputs": [],
            "stateMutability": "nonpayable",
            "type": "function"
        },
        {
            "inputs": [
                {
                    "internalType": "address",
                    "name": "to",
                    "type": "address"
                },
                {
                    "internalType": "address",
                    "name": "token",
                    "type": "address"
                },
                {
                    "internalType": "uint256",
                    "name": "amount",
                    "type": "uint256"
                }
            ],
            "name": "unlock",
            "outputs": [],
            "stateMutability": "nonpayable",
            "type": "function"
        }
    ],
    "bytecode": "608034609d57601f61091438819003918201601f19168301916001600160401b0383118484101760a157808492602094604052833981010312609d57516001600160a01b03811690819003609d575f80546001600160a01b031916821790556040519081527f2f658b440c35314f52658ea8a740e05b284cdc84dc9ae01e891f21b8933e7cad90602090a16001805560405161085e90816100b68239f35b5f80fd5b634e487b7160e01b5f52604160045260245ffdfe60806040526004361015610011575f80fd5b5f3560e01c806359508f8f146103c55780637750c9f01461015e5780637a9e5e4b146100be5780638fb360371461007b5763bf7e214f14610050575f80fd5b34610077575f366003190112610077575f546040516001600160a01b039091168152602090f35b5f80fd5b34610077575f366003190112610077575f5460a01c60ff16156100b6576020638fb3603760e01b5b6040516001600160e01b03199091168152f35b60205f6100a3565b34610077576020366003190112610077576004356001600160a01b03811690818103610077575f54906001600160a01b038216330361014c573b15610139576001600160a01b03191681175f556040519081527f2f658b440c35314f52658ea8a740e05b284cdc84dc9ae01e891f21b8933e7cad90602090a1005b506361798f2f60e11b5f5260045260245ffd5b62d1953b60e31b5f523360045260245ffd5b346100775761016c3661060c565b919061017836336106c2565b610180610808565b6040516370a0823160e01b81523060048201526001600160a01b03919091169290602081602481875afa9081156102f2575f91610393575b506040516370a0823160e01b81526001600160a01b039093166004840181905290602084602481885afa9384156102f2575f9461035f575b506040516323b872dd60e01b81528260048201523060248201528360448201526020816064815f8a5af180156102f257610332575b506040516370a0823160e01b815230600482015291602083602481895afa9283156102f2575f936102fd575b506020906024604051809881936370a0823160e01b835260048301525afa9485156102f2575f956102be575b5082610288916106b5565b036102b05761029691610694565b036102a15760018055005b631e6e6c3960e21b5f5260045ffd5b62a6dde360e21b5f5260045ffd5b9094506020813d6020116102ea575b816102da60209383610646565b810103126100775751938261027d565b3d91506102cd565b6040513d5f823e3d90fd5b9092506020813d60201161032a575b8161031960209383610646565b810103126100775751916020610251565b3d915061030c565b6103539060203d602011610358575b61034b8183610646565b81019061067c565b610225565b503d610341565b9093506020813d60201161038b575b8161037b60209383610646565b81010312610077575192856101f0565b3d915061036e565b90506020813d6020116103bd575b816103ae60209383610646565b810103126100775751846101b8565b3d91506103a1565b34610077576103d33661060c565b91906103df36336106c2565b6103e7610808565b6040516370a0823160e01b81523060048201526001600160a01b03919091169290602081602481875afa9081156102f2575f916105da575b506040516370a0823160e01b81526001600160a01b039093166004840181905290602084602481885afa9384156102f2575f946105a6575b5060405163a9059cbb60e01b81528260048201528360248201526020816044815f8a5af180156102f257610589575b506040516370a0823160e01b815230600482015291602083602481895afa9283156102f2575f93610554575b506020906024604051809881936370a0823160e01b835260048301525afa9485156102f2575f95610520575b50826104e991610694565b03610511576104f7916106b5565b036105025760018055005b63150432e760e01b5f5260045ffd5b63ac47bae160e01b5f5260045ffd5b9094506020813d60201161054c575b8161053c60209383610646565b81010312610077575193826104de565b3d915061052f565b9092506020813d602011610581575b8161057060209383610646565b8101031261007757519160206104b2565b3d9150610563565b6105a19060203d6020116103585761034b8183610646565b610486565b9093506020813d6020116105d2575b816105c260209383610646565b8101031261007757519285610457565b3d91506105b5565b90506020813d602011610604575b816105f560209383610646565b8101031261007757518461041f565b3d91506105e8565b6060906003190112610077576004356001600160a01b038116810361007757906024356001600160a01b0381168103610077579060443590565b90601f8019910116810190811067ffffffffffffffff82111761066857604052565b634e487b7160e01b5f52604160045260245ffd5b90816020910312610077575180151581036100775790565b919082039182116106a157565b634e487b7160e01b5f52601160045260245ffd5b919082018092116106a157565b5f805490926001600160a01b038216929160048210610077575f5f9060405f815196602088019063b700961360e01b825260018060a01b03169788602482015230604482015263ffffffff60e01b833516606482015260648152610727608482610646565b828052826020525190895afa6107f5575b15610746575b505050505050565b63ffffffff16156107e35760ff60a01b1916600160a01b175f55823b15610077576064925f9283604051958680958194634a63ebf760e11b83526004830152604060248301528060448301528084848401378181018301849052601f01601f191681010301925af180156102f2576107d0575b50805460ff60a01b191690555f808080808061073e565b6107dc91505f90610646565b5f5f6107b9565b8262d1953b60e31b5f5260045260245ffd5b50505f516020518060201c150290610738565b600260015414610819576002600155565b633ee5aeb560e01b5f5260045ffdfea26469706673582212204720115bf065aa5202167cfb527d3f301359010edc1d88c06d7af423080517d764736f6c634300081e0033",
    "sourcePath": "/home/answorld/repos/CL8Y-Bridge-EVM-smartcontracts/src/LockUnlock.sol",
    "compiler": {
        "name": "solc",
        "version": "0.8.30+commit.73712a01"
    },
    "functionHashes": {
        "authority()": "bf7e214f",
        "isConsumingScheduledOp()": "8fb36037",
        "lock(address,address,uint256)": "7750c9f0",
        "setAuthority(address)": "7a9e5e4b",
        "unlock(address,address,uint256)": "59508f8f"
    },
    "gasEstimates": {
        "creation": {
            "codeDepositCost": "428400",
            "executionCost": "infinite",
            "totalCost": "infinite"
        },
        "external": {
            "authority()": "2356",
            "isConsumingScheduledOp()": "2380",
            "lock(address,address,uint256)": "infinite",
            "setAuthority(address)": "28146",
            "unlock(address,address,uint256)": "infinite"
        }
    }
}