{
    "contractName": "TokenRegistry",
    "abi": [
        {
            "inputs": [
                {
                    "internalType": "address",
                    "name": "initialAuthority",
                    "type": "address"
                },
                {
                    "internalType": "contract ChainRegistry",
                    "name": "_chainRegistry",
                    "type": "address"
                }
            ],
            "stateMutability": "nonpayable",
            "type": "constructor"
        },
        {
            "inputs": [
                {
                    "internalType": "address",
                    "name": "authority",
                    "type": "address"
                }
            ],
            "name": "AccessManagedInvalidAuthority",
            "type": "error"
        },
        {
            "inputs": [
                {
                    "internalType": "address",
                    "name": "caller",
                    "type": "address"
                },
                {
                    "internalType": "uint32",
                    "name": "delay",
                    "type": "uint32"
                }
            ],
            "name": "AccessManagedRequiredDelay",
            "type": "error"
        },
        {
            "inputs": [
                {
                    "internalType": "address",
                    "name": "caller",
                    "type": "address"
                }
            ],
            "name": "AccessManagedUnauthorized",
            "type": "error"
        },
        {
            "inputs": [
                {
                    "internalType": "address",
                    "name": "token",
                    "type": "address"
                },
                {
                    "internalType": "uint256",
                    "name": "amount",
                    "type": "uint256"
                },
                {
                    "internalType": "uint256",
                    "name": "currentAmount",
                    "type": "uint256"
                },
                {
                    "internalType": "uint256",
                    "name": "cap",
                    "type": "uint256"
                }
            ],
            "name": "OverTransferAccumulatorCap",
            "type": "error"
        },
        {
            "inputs": [
                {
                    "internalType": "address",
                    "name": "token",
                    "type": "address"
                },
                {
                    "internalType": "bytes32",
                    "name": "destChainKey",
                    "type": "bytes32"
                }
            ],
            "name": "TokenDestChainKeyNotRegistered",
            "type": "error"
        },
        {
            "inputs": [
                {
                    "internalType": "address",
                    "name": "token",
                    "type": "address"
                }
            ],
            "name": "TokenNotRegistered",
            "type": "error"
        },
        {
            "anonymous": false,
            "inputs": [
                {
                    "indexed": false,
                    "internalType": "address",
                    "name": "authority",
                    "type": "address"
                }
            ],
            "name": "AuthorityUpdated",
            "type": "event"
        },
        {
            "inputs": [],
            "name": "TRANSFER_ACCUMULATOR_WINDOW",
            "outputs": [
                {
                    "internalType": "uint256",
                    "name": "",
                    "type": "uint256"
                }
            ],
            "stateMutability": "view",
            "type": "function"
        },
        {
            "inputs": [
                {
                    "internalType": "address",
                    "name": "token",
                    "type": "address"
                },
                {
                    "internalType": "enum TokenRegistry.BridgeTypeLocal",
                    "name": "bridgeTypeLocal",
                    "type": "uint8"
                },
                {
                    "internalType": "uint256",
                    "name": "transferAccumulatorCap",
                    "type": "uint256"
                }
            ],
            "name": "addToken",
            "outputs": [],
            "stateMutability": "nonpayable",
            "type": "function"
        },
        {
            "inputs": [
                {
                    "internalType": "address",
                    "name": "token",
                    "type": "address"
                },
                {
                    "internalType": "bytes32",
                    "name": "destChainKey",
                    "type": "bytes32"
                },
                {
                    "internalType": "bytes32",
                    "name": "destChainTokenAddress",
                    "type": "bytes32"
                }
            ],
            "name": "addTokenDestChainKey",
            "outputs": [],
            "stateMutability": "nonpayable",
            "type": "function"
        },
        {
            "inputs": [],
            "name": "authority",
            "outputs": [
                {
                    "internalType": "address",
                    "name": "",
                    "type": "address"
                }
            ],
            "stateMutability": "view",
            "type": "function"
        },
        {
            "inputs": [],
            "name": "chainRegistry",
            "outputs": [
                {
                    "internalType": "contract ChainRegistry",
                    "name": "",
                    "type": "address"
                }
            ],
            "stateMutability": "view",
            "type": "function"
        },
        {
            "inputs": [],
            "name": "getAllTokens",
            "outputs": [
                {
                    "internalType": "address[]",
                    "name": "",
                    "type": "address[]"
                }
            ],
            "stateMutability": "view",
            "type": "function"
        },
        {
            "inputs": [
                {
                    "internalType": "uint256",
                    "name": "index",
                    "type": "uint256"
                }
            ],
            "name": "getTokenAt",
            "outputs": [
                {
                    "internalType": "address",
                    "name": "",
                    "type": "address"
                }
            ],
            "stateMutability": "view",
            "type": "function"
        },
        {
            "inputs": [
                {
                    "internalType": "address",
                    "name": "token",
                    "type": "address"
                }
            ],
            "name": "getTokenBridgeType",
            "outputs": [
                {
                    "internalType": "enum TokenRegistry.BridgeTypeLocal",
                    "name": "",
                    "type": "uint8"
                }
            ],
            "stateMutability": "view",
            "type": "function"
        },
        {
            "inputs": [],
            "name": "getTokenCount",
            "outputs": [
                {
                    "internalType": "uint256",
                    "name": "",
                    "type": "uint256"
                }
            ],
            "stateMutability": "view",
            "type": "function"
        },
        {
            "inputs": [
                {
                    "internalType": "address",
                    "name": "token",
                    "type": "address"
                },
                {
                    "internalType": "uint256",
                    "name": "index",
                    "type": "uint256"
                }
            ],
            "name": "getTokenDestChainKeyAt",
            "outputs": [
                {
                    "internalType": "bytes32",
                    "name": "item",
                    "type": "bytes32"
                }
            ],
            "stateMutability": "view",
            "type": "function"
        },
        {
            "inputs": [
                {
                    "internalType": "address",
                    "name": "token",
                    "type": "address"
                }
            ],
            "name": "getTokenDestChainKeyCount",
            "outputs": [
                {
                    "internalType": "uint256",
                    "name": "count",
                    "type": "uint256"
                }
            ],
            "stateMutability": "view",
            "type": "function"
        },
        {
            "inputs": [
                {
                    "internalType": "address",
                    "name": "token",
                    "type": "address"
                }
            ],
            "name": "getTokenDestChainKeys",
            "outputs": [
                {
                    "internalType": "bytes32[]",
                    "name": "items",
                    "type": "bytes32[]"
                }
            ],
            "stateMutability": "view",
            "type": "function"
        },
        {
            "inputs": [
                {
                    "internalType": "address",
                    "name": "token",
                    "type": "address"
                }
            ],
            "name": "getTokenDestChainKeysAndTokenAddresses",
            "outputs": [
                {
                    "internalType": "bytes32[]",
                    "name": "chainKeys",
                    "type": "bytes32[]"
                },
                {
                    "internalType": "bytes32[]",
                    "name": "tokenAddresses",
                    "type": "bytes32[]"
                }
            ],
            "stateMutability": "view",
            "type": "function"
        },
        {
            "inputs": [
                {
                    "internalType": "address",
                    "name": "token",
                    "type": "address"
                },
                {
                    "internalType": "uint256",
                    "name": "index",
                    "type": "uint256"
                },
                {
                    "internalType": "uint256",
                    "name": "count",
                    "type": "uint256"
                }
            ],
            "name": "getTokenDestChainKeysFrom",
            "outputs": [
                {
                    "internalType": "bytes32[]",
                    "name": "items",
                    "type": "bytes32[]"
                }
            ],
            "stateMutability": "view",
            "type": "function"
        },
        {
            "inputs": [
                {
                    "internalType": "address",
                    "name": "token",
                    "type": "address"
                },
                {
                    "internalType": "bytes32",
                    "name": "destChainKey",
                    "type": "bytes32"
                }
            ],
            "name": "getTokenDestChainTokenAddress",
            "outputs": [
                {
                    "internalType": "bytes32",
                    "name": "destChainTokenAddress",
                    "type": "bytes32"
                }
            ],
            "stateMutability": "view",
            "type": "function"
        },
        {
            "inputs": [
                {
                    "internalType": "address",
                    "name": "token",
                    "type": "address"
                }
            ],
            "name": "getTokenTransferAccumulator",
            "outputs": [
                {
                    "components": [
                        {
                            "internalType": "uint256",
                            "name": "amount",
                            "type": "uint256"
                        },
                        {
                            "internalType": "uint256",
                            "name": "windowStart",
                            "type": "uint256"
                        }
                    ],
                    "internalType": "struct TokenRegistry.TransferAccumulator",
                    "name": "",
                    "type": "tuple"
                }
            ],
            "stateMutability": "view",
            "type": "function"
        },
        {
            "inputs": [
                {
                    "internalType": "address",
                    "name": "token",
                    "type": "address"
                }
            ],
            "name": "getTokenTransferAccumulatorCap",
            "outputs": [
                {
                    "internalType": "uint256",
                    "name": "transferAccumulatorCap",
                    "type": "uint256"
                }
            ],
            "stateMutability": "view",
            "type": "function"
        },
        {
            "inputs": [
                {
                    "internalType": "uint256",
                    "name": "index",
                    "type": "uint256"
                },
                {
                    "internalType": "uint256",
                    "name": "count",
                    "type": "uint256"
                }
            ],
            "name": "getTokensFrom",
            "outputs": [
                {
                    "internalType": "address[]",
                    "name": "items",
                    "type": "address[]"
                }
            ],
            "stateMutability": "view",
            "type": "function"
        },
        {
            "inputs": [],
            "name": "isConsumingScheduledOp",
            "outputs": [
                {
                    "internalType": "bytes4",
                    "name": "",
                    "type": "bytes4"
                }
            ],
            "stateMutability": "view",
            "type": "function"
        },
        {
            "inputs": [
                {
                    "internalType": "address",
                    "name": "token",
                    "type": "address"
                },
                {
                    "internalType": "bytes32",
                    "name": "destChainKey",
                    "type": "bytes32"
                }
            ],
            "name": "isTokenDestChainKeyRegistered",
            "outputs": [
                {
                    "internalType": "bool",
                    "name": "",
                    "type": "bool"
                }
            ],
            "stateMutability": "view",
            "type": "function"
        },
        {
            "inputs": [
                {
                    "internalType": "address",
                    "name": "token",
                    "type": "address"
                }
            ],
            "name": "isTokenRegistered",
            "outputs": [
                {
                    "internalType": "bool",
                    "name": "",
                    "type": "bool"
                }
            ],
            "stateMutability": "view",
            "type": "function"
        },
        {
            "inputs": [
                {
                    "internalType": "address",
                    "name": "token",
                    "type": "address"
                },
                {
                    "internalType": "bytes32",
                    "name": "destChainKey",
                    "type": "bytes32"
                }
            ],
            "name": "removeTokenDestChainKey",
            "outputs": [],
            "stateMutability": "nonpayable",
            "type": "function"
        },
        {
            "inputs": [
                {
                    "internalType": "address",
                    "name": "token",
                    "type": "address"
                },
                {
                    "internalType": "uint256",
                    "name": "amount",
                    "type": "uint256"
                }
            ],
            "name": "revertIfOverTransferAccumulatorCap",
            "outputs": [],
            "stateMutability": "view",
            "type": "function"
        },
        {
            "inputs": [
                {
                    "internalType": "address",
                    "name": "token",
                    "type": "address"
                },
                {
                    "internalType": "bytes32",
                    "name": "destChainKey",
                    "type": "bytes32"
                }
            ],
            "name": "revertIfTokenDestChainKeyNotRegistered",
            "outputs": [],
            "stateMutability": "view",
            "type": "function"
        },
        {
            "inputs": [
                {
                    "internalType": "address",
                    "name": "token",
                    "type": "address"
                }
            ],
            "name": "revertIfTokenNotRegistered",
            "outputs": [],
            "stateMutability": "view",
            "type": "function"
        },
        {
            "inputs": [
                {
                    "internalType": "address",
                    "name": "newAuthority",
                    "type": "address"
                }
            ],
            "name": "setAuthority",
            "outputs": [],
            "stateMutability": "nonpayable",
            "type": "function"
        },
        {
            "inputs": [
                {
                    "internalType": "address",
                    "name": "token",
                    "type": "address"
                },
                {
                    "internalType": "enum TokenRegistry.BridgeTypeLocal",
                    "name": "bridgeTypeLocal",
                    "type": "uint8"
                }
            ],
            "name": "setTokenBridgeType",
            "outputs": [],
            "stateMutability": "nonpayable",
            "type": "function"
        },
        {
            "inputs": [
                {
                    "internalType": "address",
                    "name": "token",
                    "type": "address"
                },
                {
                    "internalType": "bytes32",
                    "name": "destChainKey",
                    "type": "bytes32"
                },
                {
                    "internalType": "bytes32",
                    "name": "destChainTokenAddress",
                    "type": "bytes32"
                }
            ],
            "name": "setTokenDestChainTokenAddress",
            "outputs": [],
            "stateMutability": "nonpayable",
            "type": "function"
        },
        {
            "inputs": [
                {
                    "internalType": "address",
                    "name": "token",
                    "type": "address"
                },
                {
                    "internalType": "uint256",
                    "name": "transferAccumulatorCap",
                    "type": "uint256"
                }
            ],
            "name": "setTokenTransferAccumulatorCap",
            "outputs": [],
            "stateMutability": "nonpayable",
            "type": "function"
        },
        {
            "inputs": [
                {
                    "internalType": "address",
                    "name": "token",
                    "type": "address"
                },
                {
                    "internalType": "uint256",
                    "name": "amount",
                    "type": "uint256"
                }
            ],
            "name": "updateTokenTransferAccumulator",
            "outputs": [],
            "stateMutability": "nonpayable",
            "type": "function"
        }
    ],
    "bytecode": "60a0346100cd57601f61149a38819003918201601f19168301916001600160401b038311848410176100d15780849260409485528339810103126100cd5780516001600160a01b03811691908290036100cd5760200151906001600160a01b03821682036100cd575f80546001600160a01b031916821790556040519081527f2f658b440c35314f52658ea8a740e05b284cdc84dc9ae01e891f21b8933e7cad90602090a16080526040516113b490816100e68239608051818181610179015281816101c801526102a30152f35b5f80fd5b634e487b7160e01b5f52604160045260245ffdfe60806040526004361015610011575f80fd5b5f5f3560e01c80631131c8c814610cde578063190716a514610c1657806326aa101f14610bde5780632a5c792a14610b6a578063330ab34514610af85780633b1923fb14610adb5780633f0bbc4c14610a8d5780634c5e771314610a29578063543b3af7146109d15780635bc4e351146108ce578063785e070b14610896578063787058f81461085657806378a89567146108395780637a9e5e4b1461078c5780637d60c51b1461071e57806389f73520146106e75780638fb36037146106a457806390aa79b3146106815780639b6eb4f1146106495780639f7c6df21461061b578063a46f74b81461052e578063aa2fc98d146104ea578063af9a5e1614610486578063b2072f3014610434578063b7db5560146103f4578063bf7e214f146103cd578063d5c746d214610361578063db1303ea14610283578063f50f3f86146101ab5763fd5e394a14610164575f80fd5b346101a857806003193601126101a8576040517f00000000000000000000000000000000000000000000000000000000000000006001600160a01b03168152602090f35b80fd5b50346101a8576101ba36610db2565b916101c53633611088565b837f00000000000000000000000000000000000000000000000000000000000000006001600160a01b0316803b1561027f57816024916040519283809263318e0add60e11b82528860048301525afa80156102745761025b575b50506001600160a01b031680845260036020526040842061024190839061132b565b508352600460205260408320908352602052604082205580f35b8161026591610e0c565b61027057835f61021f565b8380fd5b6040513d84823e3d90fd5b5080fd5b503461035d57604036600319011261035d5761029d610d27565b906024357f00000000000000000000000000000000000000000000000000000000000000006001600160a01b0316803b1561035d575f6024916040519283809263318e0add60e11b82528660048301525afa80156103525761033c575b50826103096103399394610fa0565b60018060a01b0381168452600360205261033482604086206001915f520160205260405f2054151590565b611062565b80f35b61033992505f61034b91610e0c565b5f916102fa565b6040513d5f823e3d90fd5b5f80fd5b3461035d57606036600319011261035d5761037a610d27565b60243590600282101561035d576103ba906103953633611088565b6001600160a01b0316916103a8836112d6565b50825f52600560205260405f20610e5c565b5f52600760205260443560405f20555f80f35b3461035d575f36600319011261035d575f546040516001600160a01b039091168152602090f35b3461035d57604036600319011261035d5761040d610d27565b6104173633611088565b6001600160a01b03165f9081526007602052604090206024359055005b3461035d57604036600319011261035d576001600160a01b03610455610d27565b165f526003602052602061047c60243560405f206001915f520160205260405f2054151590565b6040519015158152f35b3461035d5761049436610db2565b9161049f3633611088565b6104d08260018060a01b03831692835f5260036020526103348260405f206001915f520160205260405f2054151590565b5f52600460205260405f20905f5260205260405f20555f80f35b3461035d57604036600319011261035d576001600160a01b0361050b610d27565b165f52600460205260405f206024355f52602052602060405f2054604051908152f35b3461035d57602036600319011261035d576001600160a01b0361054f610d27565b16805f52600360205260405f20604051808260208294549384815201905f5260205f20925f5b81811061060257505061058a92500382610e0c565b6105948151610e8c565b5f5b82518110156105d457600190845f52600460205260405f206105b88286610ebe565b515f5260205260405f20546105cd8285610ebe565b5201610596565b6105f0836105fe84604051938493604085526040850190610d7f565b908382036020850152610d7f565b0390f35b8454835260019485019486945060209093019201610575565b3461035d57604036600319011261035d576105fe61063d602435600435610fd1565b60405191829182610d3d565b3461035d57602036600319011261035d576001600160a01b0361066a610d27565b165f526007602052602060405f2054604051908152f35b3461035d57602036600319011261035d576106a261069d610d27565b610fa0565b005b3461035d575f36600319011261035d575f5460a01c60ff16156106df576020638fb3603760e01b5b6040516001600160e01b03199091168152f35b60205f6106cc565b3461035d57602036600319011261035d5760206107056004356111ce565b905460405160039290921b1c6001600160a01b03168152f35b3461035d57602036600319011261035d57610737610d27565b5f602060405161074681610ddc565b82815201526001600160a01b03165f9081526006602052604090819020815161076e81610ddc565b60206001835493848452015491019081528251918252516020820152f35b3461035d57602036600319011261035d576107a5610d27565b5f546001600160a01b038116330361082757813b15610806576001600160a01b0319166001600160a01b039091169081175f556040519081527f2f658b440c35314f52658ea8a740e05b284cdc84dc9ae01e891f21b8933e7cad90602090a1005b506361798f2f60e11b5f9081526001600160a01b0391909116600452602490fd5b62d1953b60e31b5f523360045260245ffd5b3461035d575f36600319011261035d576020600154604051908152f35b3461035d57606036600319011261035d576105fe610882610875610d27565b6044359060243590610ee6565b604051918291602083526020830190610d7f565b3461035d57602036600319011261035d576001600160a01b036108b7610d27565b165f526003602052602060405f2054604051908152f35b3461035d57604036600319011261035d576108e7610d27565b602435906108f53633611088565b60018060a01b03811690815f52600660205260405f209160016040519361091b85610ddc565b8054855201549162015180610937602086019480865242610e2e565b10156109c6575b610949858551610e4f565b808552825f52600760205260405f20541061097a5750906001915f52600660205260405f2092518355519101555f80f35b92515f918252600760205260409182902054915163f2a3971b60e01b81526001600160a01b03909416600485015260248401949094526044830193909352506064810191909152608490fd5b5f845242835261093e565b3461035d57602036600319011261035d576001600160a01b036109f2610d27565b165f52600560205260ff60405f2054166040516002821015610a15576020918152f35b634e487b7160e01b5f52602160045260245ffd5b3461035d57604036600319011261035d57610a42610d27565b60243590610a503633611088565b6001600160a01b03165f818152600360205260409020610a719083906111fb565b505f52600460205260405f20905f526020525f60408120555f80f35b3461035d57604036600319011261035d57610aa6610d27565b602435600281101561035d576106a291610ac03633611088565b6001600160a01b03165f908152600560205260409020610e5c565b3461035d575f36600319011261035d576020604051620151808152f35b3461035d57602036600319011261035d576001600160a01b03610b19610d27565b165f52600360205260405f206040519081602082549182815201915f5260205f20905f5b818110610b54576105fe8561088281870382610e0c565b8254845260209093019260019283019201610b3d565b3461035d575f36600319011261035d5760405180602060015491828152019060015f527fb10e2d527612073b26eecdfd717e6a320cf44b4afac2b0732d9fcbe2b7fa0cf6905f5b818110610bc8576105fe8561063d81870382610e0c565b8254845260209093019260019283019201610bb1565b3461035d57602036600319011261035d57602061047c6001600160a01b03610c04610d27565b165f52600260205260405f2054151590565b3461035d57604036600319011261035d57610c2f610d27565b6024359060018060a01b038116805f52600660205260405f2090600160405192610c5884610ddc565b80548452015490602083019182525f52600760205262015180610c8160405f2054925142610e2e565b1015610cd75780610c93858451610e4f565b11610c9a57005b905160405163f2a3971b60e01b81526001600160a01b03939093166004840152602483019390935260448201929092526064810191909152608490fd5b8084610c93565b3461035d57604036600319011261035d576001600160a01b03610cff610d27565b165f5260036020526020610d1860243560405f206111e6565b90549060031b1c604051908152f35b600435906001600160a01b038216820361035d57565b60206040818301928281528451809452019201905f5b818110610d605750505090565b82516001600160a01b0316845260209384019390920191600101610d53565b90602080835192838152019201905f5b818110610d9c5750505090565b8251845260209384019390920191600101610d8f565b606090600319011261035d576004356001600160a01b038116810361035d57906024359060443590565b6040810190811067ffffffffffffffff821117610df857604052565b634e487b7160e01b5f52604160045260245ffd5b90601f8019910116810190811067ffffffffffffffff821117610df857604052565b91908203918211610e3b57565b634e487b7160e01b5f52601160045260245ffd5b91908201809211610e3b57565b906002811015610a155760ff80198354169116179055565b67ffffffffffffffff8111610df85760051b60200190565b90610e9682610e74565b610ea36040519182610e0c565b8281528092610eb4601f1991610e74565b0190602036910137565b8051821015610ed25760209160051b010190565b634e487b7160e01b5f52603260045260245ffd5b6001600160a01b03165f81815260036020526040902054909392919080821015610f835780610f158484610e4f565b11610f6f575b50610f2582610e8c565b935f5b838110610f355750505050565b600190825f526003602052610f5760405f20610f518387610e4f565b906111e6565b90549060031b1c610f688289610ebe565b5201610f28565b81925090610f7c91610e2e565b905f610f1b565b5050509050604051610f96602082610e0c565b5f81525f36813790565b6001600160a01b03165f8181526002602052604090205415610fbf5750565b63ddef98d760e01b5f5260045260245ffd5b91906001548084101561105057808491610feb8484610e4f565b1161103f575b5050610ffc81610e8c565b925f5b82811061100b57505050565b8061102061101b60019385610e4f565b6111ce565b838060a01b0391549060031b1c166110388288610ebe565b5201610fff565b6110499250610e2e565b825f610ff1565b50509050604051610f96602082610e0c565b1561106b575050565b635d46bacf60e01b5f5260018060a01b031660045260245260445ffd5b5f805490926001600160a01b03821692916004821061035d575f5f9060405f815196602088019063b700961360e01b825260018060a01b03169788602482015230604482015263ffffffff60e01b8335166064820152606481526110ed608482610e0c565b828052826020525190895afa6111bb575b1561110c575b505050505050565b63ffffffff16156111a95760ff60a01b1916600160a01b175f55823b1561035d576064925f9283604051958680958194634a63ebf760e11b83526004830152604060248301528060448301528084848401378181018301849052601f01601f191681010301925af1801561035257611196575b50805460ff60a01b191690555f8080808080611104565b6111a291505f90610e0c565b5f5f61117f565b8262d1953b60e31b5f5260045260245ffd5b50505f516020518060201c1502906110fe565b600154811015610ed25760015f5260205f2001905f90565b8054821015610ed2575f5260205f2001905f90565b906001820191815f528260205260405f20548015155f146112ce575f198101818111610e3b5782545f19810191908211610e3b57818103611283575b5050508054801561126f575f19019061125082826111e6565b8154905f199060031b1b19169055555f526020525f6040812055600190565b634e487b7160e01b5f52603160045260245ffd5b6112b96112936112a393866111e6565b90549060031b1c928392866111e6565b819391549060031b91821b915f19901b19161790565b90555f528360205260405f20555f8080611237565b505050505f90565b805f52600260205260405f2054155f1461132657600154600160401b811015610df85761130f6112a382600185940160015560016111e6565b9055600154905f52600260205260405f2055600190565b505f90565b5f82815260018201602052604090205461137857805490600160401b821015610df857826113636112a38460018096018555846111e6565b90558054925f520160205260405f2055600190565b50505f9056fea264697066735822122033da27ffc6570262c578661bcfce045403dd678cc3252f94c0236c78f518cf3364736f6c634300081e0033",
    "sourcePath": "/home/answorld/repos/CL8Y-Bridge-EVM-smartcontracts/src/TokenRegistry.sol",
    "compiler": {
        "name": "solc",
        "version": "0.8.30+commit.73712a01"
    },
    "functionHashes": {
        "TRANSFER_ACCUMULATOR_WINDOW()": "3b1923fb",
        "addToken(address,uint8,uint256)": "d5c746d2",
        "addTokenDestChainKey(address,bytes32,bytes32)": "f50f3f86",
        "authority()": "bf7e214f",
        "chainRegistry()": "fd5e394a",
        "getAllTokens()": "2a5c792a",
        "getTokenAt(uint256)": "89f73520",
        "getTokenBridgeType(address)": "543b3af7",
        "getTokenCount()": "78a89567",
        "getTokenDestChainKeyAt(address,uint256)": "1131c8c8",
        "getTokenDestChainKeyCount(address)": "785e070b",
        "getTokenDestChainKeys(address)": "330ab345",
        "getTokenDestChainKeysAndTokenAddresses(address)": "a46f74b8",
        "getTokenDestChainKeysFrom(address,uint256,uint256)": "787058f8",
        "getTokenDestChainTokenAddress(address,bytes32)": "aa2fc98d",
        "getTokenTransferAccumulator(address)": "7d60c51b",
        "getTokenTransferAccumulatorCap(address)": "9b6eb4f1",
        "getTokensFrom(uint256,uint256)": "9f7c6df2",
        "isConsumingScheduledOp()": "8fb36037",
        "isTokenDestChainKeyRegistered(address,bytes32)": "b2072f30",
        "isTokenRegistered(address)": "26aa101f",
        "removeTokenDestChainKey(address,bytes32)": "4c5e7713",
        "revertIfOverTransferAccumulatorCap(address,uint256)": "190716a5",
        "revertIfTokenDestChainKeyNotRegistered(address,bytes32)": "db1303ea",
        "revertIfTokenNotRegistered(address)": "90aa79b3",
        "setAuthority(address)": "7a9e5e4b",
        "setTokenBridgeType(address,uint8)": "3f0bbc4c",
        "setTokenDestChainTokenAddress(address,bytes32,bytes32)": "af9a5e16",
        "setTokenTransferAccumulatorCap(address,uint256)": "b7db5560",
        "updateTokenTransferAccumulator(address,uint256)": "5bc4e351"
    },
    "gasEstimates": {
        "creation": {
            "codeDepositCost": "1008800",
            "executionCost": "infinite",
            "totalCost": "infinite"
        },
        "external": {
            "TRANSFER_ACCUMULATOR_WINDOW()": "257",
            "addToken(address,uint8,uint256)": "infinite",
            "addTokenDestChainKey(address,bytes32,bytes32)": "infinite",
            "authority()": "2823",
            "chainRegistry()": "infinite",
            "getAllTokens()": "infinite",
            "getTokenAt(uint256)": "4829",
            "getTokenBridgeType(address)": "2618",
            "getTokenCount()": "2514",
            "getTokenDestChainKeyAt(address,uint256)": "4627",
            "getTokenDestChainKeyCount(address)": "2620",
            "getTokenDestChainKeys(address)": "infinite",
            "getTokenDestChainKeysAndTokenAddresses(address)": "infinite",
            "getTokenDestChainKeysFrom(address,uint256,uint256)": "infinite",
            "getTokenDestChainTokenAddress(address,bytes32)": "2926",
            "getTokenTransferAccumulator(address)": "infinite",
            "getTokenTransferAccumulatorCap(address)": "2796",
            "getTokensFrom(uint256,uint256)": "infinite",
            "isConsumingScheduledOp()": "2668",
            "isTokenDestChainKeyRegistered(address,bytes32)": "3006",
            "isTokenRegistered(address)": "2471",
            "removeTokenDestChainKey(address,bytes32)": "infinite",
            "revertIfOverTransferAccumulatorCap(address,uint256)": "7132",
            "revertIfTokenDestChainKeyNotRegistered(address,bytes32)": "infinite",
            "revertIfTokenNotRegistered(address)": "2814",
            "setAuthority(address)": "28438",
            "setTokenBridgeType(address,uint8)": "infinite",
            "setTokenDestChainTokenAddress(address,bytes32,bytes32)": "infinite",
            "setTokenTransferAccumulatorCap(address,uint256)": "infinite",
            "updateTokenTransferAccumulator(address,uint256)": "infinite"
        }
    }
}