{
    "contractName": "TokenCl8yBridged",
    "abi": [
        {
            "inputs": [
                {
                    "internalType": "string",
                    "name": "name",
                    "type": "string"
                },
                {
                    "internalType": "string",
                    "name": "symbol",
                    "type": "string"
                },
                {
                    "internalType": "address",
                    "name": "initialAuthority",
                    "type": "address"
                },
                {
                    "internalType": "string",
                    "name": "_logoLink",
                    "type": "string"
                }
            ],
            "stateMutability": "nonpayable",
            "type": "constructor"
        },
        {
            "inputs": [
                {
                    "internalType": "address",
                    "name": "authority",
                    "type": "address"
                }
            ],
            "name": "AccessManagedInvalidAuthority",
            "type": "error"
        },
        {
            "inputs": [
                {
                    "internalType": "address",
                    "name": "caller",
                    "type": "address"
                },
                {
                    "internalType": "uint32",
                    "name": "delay",
                    "type": "uint32"
                }
            ],
            "name": "AccessManagedRequiredDelay",
            "type": "error"
        },
        {
            "inputs": [
                {
                    "internalType": "address",
                    "name": "caller",
                    "type": "address"
                }
            ],
            "name": "AccessManagedUnauthorized",
            "type": "error"
        },
        {
            "inputs": [],
            "name": "ECDSAInvalidSignature",
            "type": "error"
        },
        {
            "inputs": [
                {
                    "internalType": "uint256",
                    "name": "length",
                    "type": "uint256"
                }
            ],
            "name": "ECDSAInvalidSignatureLength",
            "type": "error"
        },
        {
            "inputs": [
                {
                    "internalType": "bytes32",
                    "name": "s",
                    "type": "bytes32"
                }
            ],
            "name": "ECDSAInvalidSignatureS",
            "type": "error"
        },
        {
            "inputs": [
                {
                    "internalType": "address",
                    "name": "spender",
                    "type": "address"
                },
                {
                    "internalType": "uint256",
                    "name": "allowance",
                    "type": "uint256"
                },
                {
                    "internalType": "uint256",
                    "name": "needed",
                    "type": "uint256"
                }
            ],
            "name": "ERC20InsufficientAllowance",
            "type": "error"
        },
        {
            "inputs": [
                {
                    "internalType": "address",
                    "name": "sender",
                    "type": "address"
                },
                {
                    "internalType": "uint256",
                    "name": "balance",
                    "type": "uint256"
                },
                {
                    "internalType": "uint256",
                    "name": "needed",
                    "type": "uint256"
                }
            ],
            "name": "ERC20InsufficientBalance",
            "type": "error"
        },
        {
            "inputs": [
                {
                    "internalType": "address",
                    "name": "approver",
                    "type": "address"
                }
            ],
            "name": "ERC20InvalidApprover",
            "type": "error"
        },
        {
            "inputs": [
                {
                    "internalType": "address",
                    "name": "receiver",
                    "type": "address"
                }
            ],
            "name": "ERC20InvalidReceiver",
            "type": "error"
        },
        {
            "inputs": [
                {
                    "internalType": "address",
                    "name": "sender",
                    "type": "address"
                }
            ],
            "name": "ERC20InvalidSender",
            "type": "error"
        },
        {
            "inputs": [
                {
                    "internalType": "address",
                    "name": "spender",
                    "type": "address"
                }
            ],
            "name": "ERC20InvalidSpender",
            "type": "error"
        },
        {
            "inputs": [
                {
                    "internalType": "uint256",
                    "name": "deadline",
                    "type": "uint256"
                }
            ],
            "name": "ERC2612ExpiredSignature",
            "type": "error"
        },
        {
            "inputs": [
                {
                    "internalType": "address",
                    "name": "signer",
                    "type": "address"
                },
                {
                    "internalType": "address",
                    "name": "owner",
                    "type": "address"
                }
            ],
            "name": "ERC2612InvalidSigner",
            "type": "error"
        },
        {
            "inputs": [
                {
                    "internalType": "address",
                    "name": "account",
                    "type": "address"
                },
                {
                    "internalType": "uint256",
                    "name": "currentNonce",
                    "type": "uint256"
                }
            ],
            "name": "InvalidAccountNonce",
            "type": "error"
        },
        {
            "inputs": [],
            "name": "InvalidShortString",
            "type": "error"
        },
        {
            "inputs": [
                {
                    "internalType": "string",
                    "name": "str",
                    "type": "string"
                }
            ],
            "name": "StringTooLong",
            "type": "error"
        },
        {
            "anonymous": false,
            "inputs": [
                {
                    "indexed": true,
                    "internalType": "address",
                    "name": "owner",
                    "type": "address"
                },
                {
                    "indexed": true,
                    "internalType": "address",
                    "name": "spender",
                    "type": "address"
                },
                {
                    "indexed": false,
                    "internalType": "uint256",
                    "name": "value",
                    "type": "uint256"
                }
            ],
            "name": "Approval",
            "type": "event"
        },
        {
            "anonymous": false,
            "inputs": [
                {
                    "indexed": false,
                    "internalType": "address",
                    "name": "authority",
                    "type": "address"
                }
            ],
            "name": "AuthorityUpdated",
            "type": "event"
        },
        {
            "anonymous": false,
            "inputs": [],
            "name": "EIP712DomainChanged",
            "type": "event"
        },
        {
            "anonymous": false,
            "inputs": [
                {
                    "indexed": true,
                    "internalType": "address",
                    "name": "from",
                    "type": "address"
                },
                {
                    "indexed": true,
                    "internalType": "address",
                    "name": "to",
                    "type": "address"
                },
                {
                    "indexed": false,
                    "internalType": "uint256",
                    "name": "value",
                    "type": "uint256"
                }
            ],
            "name": "Transfer",
            "type": "event"
        },
        {
            "inputs": [],
            "name": "DOMAIN_SEPARATOR",
            "outputs": [
                {
                    "internalType": "bytes32",
                    "name": "",
                    "type": "bytes32"
                }
            ],
            "stateMutability": "view",
            "type": "function"
        },
        {
            "inputs": [],
            "name": "ORIGIN_CHAIN_ID",
            "outputs": [
                {
                    "internalType": "uint256",
                    "name": "",
                    "type": "uint256"
                }
            ],
            "stateMutability": "view",
            "type": "function"
        },
        {
            "inputs": [
                {
                    "internalType": "address",
                    "name": "owner",
                    "type": "address"
                },
                {
                    "internalType": "address",
                    "name": "spender",
                    "type": "address"
                }
            ],
            "name": "allowance",
            "outputs": [
                {
                    "internalType": "uint256",
                    "name": "",
                    "type": "uint256"
                }
            ],
            "stateMutability": "view",
            "type": "function"
        },
        {
            "inputs": [
                {
                    "internalType": "address",
                    "name": "spender",
                    "type": "address"
                },
                {
                    "internalType": "uint256",
                    "name": "value",
                    "type": "uint256"
                }
            ],
            "name": "approve",
            "outputs": [
                {
                    "internalType": "bool",
                    "name": "",
                    "type": "bool"
                }
            ],
            "stateMutability": "nonpayable",
            "type": "function"
        },
        {
            "inputs": [],
            "name": "authority",
            "outputs": [
                {
                    "internalType": "address",
                    "name": "",
                    "type": "address"
                }
            ],
            "stateMutability": "view",
            "type": "function"
        },
        {
            "inputs": [
                {
                    "internalType": "address",
                    "name": "account",
                    "type": "address"
                }
            ],
            "name": "balanceOf",
            "outputs": [
                {
                    "internalType": "uint256",
                    "name": "",
                    "type": "uint256"
                }
            ],
            "stateMutability": "view",
            "type": "function"
        },
        {
            "inputs": [
                {
                    "internalType": "uint256",
                    "name": "value",
                    "type": "uint256"
                }
            ],
            "name": "burn",
            "outputs": [],
            "stateMutability": "nonpayable",
            "type": "function"
        },
        {
            "inputs": [
                {
                    "internalType": "address",
                    "name": "account",
                    "type": "address"
                },
                {
                    "internalType": "uint256",
                    "name": "value",
                    "type": "uint256"
                }
            ],
            "name": "burnFrom",
            "outputs": [],
            "stateMutability": "nonpayable",
            "type": "function"
        },
        {
            "inputs": [],
            "name": "decimals",
            "outputs": [
                {
                    "internalType": "uint8",
                    "name": "",
                    "type": "uint8"
                }
            ],
            "stateMutability": "view",
            "type": "function"
        },
        {
            "inputs": [],
            "name": "eip712Domain",
            "outputs": [
                {
                    "internalType": "bytes1",
                    "name": "fields",
                    "type": "bytes1"
                },
                {
                    "internalType": "string",
                    "name": "name",
                    "type": "string"
                },
                {
                    "internalType": "string",
                    "name": "version",
                    "type": "string"
                },
                {
                    "internalType": "uint256",
                    "name": "chainId",
                    "type": "uint256"
                },
                {
                    "internalType": "address",
                    "name": "verifyingContract",
                    "type": "address"
                },
                {
                    "internalType": "bytes32",
                    "name": "salt",
                    "type": "bytes32"
                },
                {
                    "internalType": "uint256[]",
                    "name": "extensions",
                    "type": "uint256[]"
                }
            ],
            "stateMutability": "view",
            "type": "function"
        },
        {
            "inputs": [],
            "name": "isConsumingScheduledOp",
            "outputs": [
                {
                    "internalType": "bytes4",
                    "name": "",
                    "type": "bytes4"
                }
            ],
            "stateMutability": "view",
            "type": "function"
        },
        {
            "inputs": [],
            "name": "logoLink",
            "outputs": [
                {
                    "internalType": "string",
                    "name": "",
                    "type": "string"
                }
            ],
            "stateMutability": "view",
            "type": "function"
        },
        {
            "inputs": [
                {
                    "internalType": "address",
                    "name": "to",
                    "type": "address"
                },
                {
                    "internalType": "uint256",
                    "name": "amount",
                    "type": "uint256"
                }
            ],
            "name": "mint",
            "outputs": [],
            "stateMutability": "nonpayable",
            "type": "function"
        },
        {
            "inputs": [],
            "name": "name",
            "outputs": [
                {
                    "internalType": "string",
                    "name": "",
                    "type": "string"
                }
            ],
            "stateMutability": "view",
            "type": "function"
        },
        {
            "inputs": [
                {
                    "internalType": "address",
                    "name": "owner",
                    "type": "address"
                }
            ],
            "name": "nonces",
            "outputs": [
                {
                    "internalType": "uint256",
                    "name": "",
                    "type": "uint256"
                }
            ],
            "stateMutability": "view",
            "type": "function"
        },
        {
            "inputs": [
                {
                    "internalType": "address",
                    "name": "owner",
                    "type": "address"
                },
                {
                    "internalType": "address",
                    "name": "spender",
                    "type": "address"
                },
                {
                    "internalType": "uint256",
                    "name": "value",
                    "type": "uint256"
                },
                {
                    "internalType": "uint256",
                    "name": "deadline",
                    "type": "uint256"
                },
                {
                    "internalType": "uint8",
                    "name": "v",
                    "type": "uint8"
                },
                {
                    "internalType": "bytes32",
                    "name": "r",
                    "type": "bytes32"
                },
                {
                    "internalType": "bytes32",
                    "name": "s",
                    "type": "bytes32"
                }
            ],
            "name": "permit",
            "outputs": [],
            "stateMutability": "nonpayable",
            "type": "function"
        },
        {
            "inputs": [
                {
                    "internalType": "address",
                    "name": "newAuthority",
                    "type": "address"
                }
            ],
            "name": "setAuthority",
            "outputs": [],
            "stateMutability": "nonpayable",
            "type": "function"
        },
        {
            "inputs": [
                {
                    "internalType": "string",
                    "name": "_logoLink",
                    "type": "string"
                }
            ],
            "name": "setLogoLink",
            "outputs": [],
            "stateMutability": "nonpayable",
            "type": "function"
        },
        {
            "inputs": [],
            "name": "symbol",
            "outputs": [
                {
                    "internalType": "string",
                    "name": "",
                    "type": "string"
                }
            ],
            "stateMutability": "view",
            "type": "function"
        },
        {
            "inputs": [],
            "name": "totalSupply",
            "outputs": [
                {
                    "internalType": "uint256",
                    "name": "",
                    "type": "uint256"
                }
            ],
            "stateMutability": "view",
            "type": "function"
        },
        {
            "inputs": [
                {
                    "internalType": "address",
                    "name": "to",
                    "type": "address"
                },
                {
                    "internalType": "uint256",
                    "name": "value",
                    "type": "uint256"
                }
            ],
            "name": "transfer",
            "outputs": [
                {
                    "internalType": "bool",
                    "name": "",
                    "type": "bool"
                }
            ],
            "stateMutability": "nonpayable",
            "type": "function"
        },
        {
            "inputs": [
                {
                    "internalType": "address",
                    "name": "from",
                    "type": "address"
                },
                {
                    "internalType": "address",
                    "name": "to",
                    "type": "address"
                },
                {
                    "internalType": "uint256",
                    "name": "value",
                    "type": "uint256"
                }
            ],
            "name": "transferFrom",
            "outputs": [
                {
                    "internalType": "bool",
                    "name": "",
                    "type": "bool"
                }
            ],
            "stateMutability": "nonpayable",
            "type": "function"
        }
    ],
    "bytecode": "61018080604052346105c457611cb4803803809161001d82856105c8565b833981016080828203126105c45781516001600160401b0381116105c457816100479184016105eb565b60208301519091906001600160401b0381116105c457816100699185016105eb565b604084015190936001600160a01b0382169290918390036105c45760608201516001600160401b0381116105c4576100a192016105eb565b926040928351926100b285856105c8565b60018452603160f81b6020850190815282519093906001600160401b0381116103e657600354600181811c911680156105ba575b60208210146103c857601f8111610557575b50806020601f82116001146104f3575f916104e8575b508160011b915f199060031b1c1916176003555b8051906001600160401b0382116103e657600454600181811c911680156104de575b60208210146103c857601f811161047b575b50602090601f83116001146104055791805f516020611c945f395f51905f5294926020945f926103fa575b50508160011b915f199060031b1c1916176004555b600580546001600160a01b031916821790558651908152a16101b781610640565b610120526101c4836107c7565b6101405260208151910120918260e05251902080610100524660a05282519060208201927f8b73c3c69bb8fe3d512ecc4cf759cc79239f7b179b0ffacaa9a75d522b39400f84528483015260608201524660808201523060a082015260a0815261022f60c0826105c8565b5190206080523060c052466101605281516001600160401b0381116103e657600954600181811c911680156103dc575b60208210146103c857601f8111610365575b50602092601f821160011461030457928192935f926102f9575b50508160011b915f199060031b1c1916176009555b516113949081610900823960805181610d7c015260a05181610e39015260c05181610d46015260e05181610dcb01526101005181610df10152610120518161043b0152610140518161046401526101605181610a380152f35b015190505f8061028b565b601f1982169360095f52805f20915f5b86811061034d5750836001959610610335575b505050811b016009556102a0565b01515f1960f88460031b161c191690555f8080610327565b91926020600181928685015181550194019201610314565b60095f527f6e1540171b6c0c960b71a7020d9f60077f6af931a8bbf590da0223dacf75c7af601f830160051c810191602084106103be575b601f0160051c01905b8181106103b35750610271565b5f81556001016103a6565b909150819061039d565b634e487b7160e01b5f52602260045260245ffd5b90607f169061025f565b634e487b7160e01b5f52604160045260245ffd5b015190505f80610181565b90601f1983169160045f52815f20925f5b81811061046357509260019285926020965f516020611c945f395f51905f5298961061044b575b505050811b01600455610196565b01515f1960f88460031b161c191690555f808061043d565b92936020600181928786015181550195019301610416565b60045f527f8a35acfbc15ff81a39ae7d344fd709f28e8600b4aa8c65c6b64bfe7fe36bd19b601f840160051c810191602085106104d4575b601f0160051c01905b8181106104c95750610156565b5f81556001016104bc565b90915081906104b3565b90607f1690610144565b90508401515f61010e565b60035f9081528181209250601f198416905b81811061053f57509083600194939210610527575b5050811b01600355610122565b8601515f1960f88460031b161c191690555f8061051a565b9192602060018192868b015181550194019201610505565b60035f527fc2575a0e9e593c00f959f8c92f12db2869c3395a3b0502d05e2516446f71f85b601f830160051c810191602084106105b0575b601f0160051c01905b8181106105a557506100f8565b5f8155600101610598565b909150819061058f565b90607f16906100e6565b5f80fd5b601f909101601f19168101906001600160401b038211908210176103e657604052565b81601f820112156105c4578051906001600160401b0382116103e6576040519261061f601f8401601f1916602001856105c8565b828452602083830101116105c457815f9260208093018386015e8301015290565b908151602081105f146106ba575090601f81511161067a57602081519101516020821061066b571790565b5f198260200360031b1b161790565b604460209160405192839163305a27a960e01b83528160048401528051918291826024860152018484015e5f828201840152601f01601f19168101030190fd5b6001600160401b0381116103e657600654600181811c911680156107bd575b60208210146103c857601f811161078a575b50602092601f821160011461072957928192935f9261071e575b50508160011b915f199060031b1c19161760065560ff90565b015190505f80610705565b601f1982169360065f52805f20915f5b868110610772575083600195961061075a575b505050811b0160065560ff90565b01515f1960f88460031b161c191690555f808061074c565b91926020600181928685015181550194019201610739565b60065f52601f60205f20910160051c810190601f830160051c015b8181106107b257506106eb565b5f81556001016107a5565b90607f16906106d9565b908151602081105f146107f2575090601f81511161067a57602081519101516020821061066b571790565b6001600160401b0381116103e657600754600181811c911680156108f5575b60208210146103c857601f81116108c2575b50602092601f821160011461086157928192935f92610856575b50508160011b915f199060031b1c19161760075560ff90565b015190505f8061083d565b601f1982169360075f52805f20915f5b8681106108aa5750836001959610610892575b505050811b0160075560ff90565b01515f1960f88460031b161c191690555f8080610884565b91926020600181928685015181550194019201610871565b60075f52601f60205f20910160051c810190601f830160051c015b8181106108ea5750610823565b5f81556001016108dd565b90607f169061081156fe60806040526004361015610011575f80fd5b5f3560e01c806306fdde0314610a81578063095ea7b314610a5b5780630dd85b0014610a2157806318160ddd14610a0457806323b872dd146109cc578063313ce567146109b15780633644e5151461098f57806340c10f19146108e157806342966c68146108c457806343202c8b146106fb57806370a08231146106c457806379cc6790146106945780637a9e5e4b146105e55780637ecebe00146105ad578063816e81791461051b57806384b0196e146104235780638fb36037146103df57806395d89b41146102fd578063a9059cbb146102cc578063bf7e214f146102a4578063d505accf1461015f5763dd62ed3e1461010b575f80fd5b3461015b57604036600319011261015b57610124610b4a565b61012c610b60565b6001600160a01b039182165f908152600160209081526040808320949093168252928352819020549051908152f35b5f80fd5b3461015b5760e036600319011261015b57610178610b4a565b610180610b60565b604435906064359260843560ff8116810361015b578442116102915761025461025d9160018060a01b03841696875f52600860205260405f20908154916001830190556040519060208201927f6e71edae12b1b97f4d1f60370fef10105fa2faae0126114a169c64845d6126c984528a604084015260018060a01b038916606084015289608084015260a083015260c082015260c0815261022260e082610b76565b51902061022d610d43565b906040519161190160f01b83526002830152602282015260c43591604260a4359220611248565b909291926112ca565b6001600160a01b031684810361027a57506102789350611030565b005b84906325c0072360e11b5f5260045260245260445ffd5b8463313c898160e11b5f5260045260245ffd5b3461015b575f36600319011261015b576005546040516001600160a01b039091168152602090f35b3461015b57604036600319011261015b576102f26102e8610b4a565b6024359033610c99565b602060405160018152f35b3461015b575f36600319011261015b576040515f60045461031d81610b98565b80845290600181169081156103bb575060011461035d575b6103598361034581850382610b76565b604051918291602083526020830190610b26565b0390f35b60045f9081527f8a35acfbc15ff81a39ae7d344fd709f28e8600b4aa8c65c6b64bfe7fe36bd19b939250905b8082106103a157509091508101602001610345610335565b919260018160209254838588010152019101909291610389565b60ff191660208086019190915291151560051b840190910191506103459050610335565b3461015b575f36600319011261015b5760055460a01c60ff161561041b576020638fb3603760e01b5b6040516001600160e01b03199091168152f35b60205f610408565b3461015b575f36600319011261015b576104bf61045f7f0000000000000000000000000000000000000000000000000000000000000000611093565b6104887f0000000000000000000000000000000000000000000000000000000000000000611190565b60206104cd6040519261049b8385610b76565b5f84525f368137604051958695600f60f81b875260e08588015260e0870190610b26565b908582036040870152610b26565b4660608501523060808501525f60a085015283810360c08501528180845192838152019301915f5b82811061050457505050500390f35b8351855286955093810193928101926001016104f5565b3461015b575f36600319011261015b576040515f60095461053b81610b98565b80845290600181169081156103bb5750600114610562576103598361034581850382610b76565b60095f9081525f51602061133f5f395f51905f52939250905b80821061059357509091508101602001610345610335565b91926001816020925483858801015201910190929161057b565b3461015b57602036600319011261015b576001600160a01b036105ce610b4a565b165f526008602052602060405f2054604051908152f35b3461015b57602036600319011261015b576105fe610b4a565b6005546001600160a01b038116330361068257813b15610661576001600160a01b0319166001600160a01b039091169081176005556040519081527f2f658b440c35314f52658ea8a740e05b284cdc84dc9ae01e891f21b8933e7cad90602090a1005b506361798f2f60e11b5f9081526001600160a01b0391909116600452602490fd5b62d1953b60e31b5f523360045260245ffd5b3461015b57604036600319011261015b576102786106b0610b4a565b602435906106bf823383610bd0565b610fac565b3461015b57602036600319011261015b576001600160a01b036106e5610b4a565b165f525f602052602060405f2054604051908152f35b3461015b57602036600319011261015b5760043567ffffffffffffffff811161015b573660238201121561015b57806004013567ffffffffffffffff81116108b05760405191610755601f8301601f191660200184610b76565b818352366024838301011161015b57815f92602460209301838601378301015261077f3633610e5f565b805167ffffffffffffffff81116108b05761079b600954610b98565b601f8111610848575b50602091601f82116001146107e0579181925f926107d5575b50505f19600383901b1c191660019190911b17600955005b0151905082806107bd565b601f1982169260095f525f51602061133f5f395f51905f52915f5b85811061083057508360019510610818575b505050811b01600955005b01515f1960f88460031b161c1916905582808061080d565b919260206001819286850151815501940192016107fb565b60095f52601f820160051c5f51602061133f5f395f51905f5201906020831061089b575b601f0160051c5f51602061133f5f395f51905f5201905b81811061089057506107a4565b5f8155600101610883565b5f51602061133f5f395f51905f52915061086c565b634e487b7160e01b5f52604160045260245ffd5b3461015b57602036600319011261015b5761027860043533610fac565b3461015b57604036600319011261015b576108fa610b4a565b602435906109083633610e5f565b6001600160a01b031690811561097c57600254908082018092116109685760207fddf252ad1be2c89b69c2b068fc378daa952ba7f163c4a11628f55a4df523b3ef915f9360025584845283825260408420818154019055604051908152a3005b634e487b7160e01b5f52601160045260245ffd5b63ec442f0560e01b5f525f60045260245ffd5b3461015b575f36600319011261015b5760206109a9610d43565b604051908152f35b3461015b575f36600319011261015b57602060405160128152f35b3461015b57606036600319011261015b576102f26109e8610b4a565b6109f0610b60565b604435916109ff833383610bd0565b610c99565b3461015b575f36600319011261015b576020600254604051908152f35b3461015b575f36600319011261015b5760206040517f00000000000000000000000000000000000000000000000000000000000000008152f35b3461015b57604036600319011261015b576102f2610a77610b4a565b6024359033611030565b3461015b575f36600319011261015b576040515f600354610aa181610b98565b80845290600181169081156103bb5750600114610ac8576103598361034581850382610b76565b60035f9081527fc2575a0e9e593c00f959f8c92f12db2869c3395a3b0502d05e2516446f71f85b939250905b808210610b0c57509091508101602001610345610335565b919260018160209254838588010152019101909291610af4565b805180835260209291819084018484015e5f828201840152601f01601f1916010190565b600435906001600160a01b038216820361015b57565b602435906001600160a01b038216820361015b57565b90601f8019910116810190811067ffffffffffffffff8211176108b057604052565b90600182811c92168015610bc6575b6020831014610bb257565b634e487b7160e01b5f52602260045260245ffd5b91607f1691610ba7565b6001600160a01b039081165f818152600160209081526040808320948616835293905291909120549291905f198410610c0a575b50505050565b828410610c76578015610c63576001600160a01b03821615610c50575f52600160205260405f209060018060a01b03165f5260205260405f20910390555f808080610c04565b634a1406b160e11b5f525f60045260245ffd5b63e602df0560e01b5f525f60045260245ffd5b508290637dc7a0d960e11b5f5260018060a01b031660045260245260445260645ffd5b6001600160a01b0316908115610d30576001600160a01b031691821561097c57815f525f60205260405f2054818110610d1757817fddf252ad1be2c89b69c2b068fc378daa952ba7f163c4a11628f55a4df523b3ef92602092855f525f84520360405f2055845f525f825260405f20818154019055604051908152a3565b8263391434e360e21b5f5260045260245260445260645ffd5b634b637e8f60e11b5f525f60045260245ffd5b307f00000000000000000000000000000000000000000000000000000000000000006001600160a01b03161480610e36575b15610d9e577f000000000000000000000000000000000000000000000000000000000000000090565b60405160208101907f8b73c3c69bb8fe3d512ecc4cf759cc79239f7b179b0ffacaa9a75d522b39400f82527f000000000000000000000000000000000000000000000000000000000000000060408201527f000000000000000000000000000000000000000000000000000000000000000060608201524660808201523060a082015260a08152610e3060c082610b76565b51902090565b507f00000000000000000000000000000000000000000000000000000000000000004614610d75565b6005546001600160a01b03811692906004821061015b575f5f9060405f815196602088019063b700961360e01b825260018060a01b03169788602482015230604482015263ffffffff60e01b833516606482015260648152610ec2608482610b76565b828052826020525190895afa610f99575b15610ee0575b5050505050565b63ffffffff1615610f875760ff60a01b1916600160a01b17600555823b1561015b576064925f9283604051958680958194634a63ebf760e11b83526004830152604060248301528060448301528084848401378181018301849052601f01601f191681010301925af18015610f7c57610f6c575b506005805460ff60a01b191690555f80808080610ed9565b5f610f7691610b76565b5f610f54565b6040513d5f823e3d90fd5b8262d1953b60e31b5f5260045260245ffd5b50505f516020518060201c150290610ed3565b9091906001600160a01b03168015610d3057805f525f60205260405f2054838110611016576020845f94957fddf252ad1be2c89b69c2b068fc378daa952ba7f163c4a11628f55a4df523b3ef938587528684520360408620558060025403600255604051908152a3565b915063391434e360e21b5f5260045260245260445260645ffd5b6001600160a01b0316908115610c63576001600160a01b0316918215610c505760207f8c5be1e5ebec7d5bd14f71427d1e84f3dd0314c0f7b2291e5b200ac8c7c3b92591835f526001825260405f20855f5282528060405f2055604051908152a3565b60ff81146110d95760ff811690601f82116110ca57604051916110b7604084610b76565b6020808452838101919036833783525290565b632cd44ac360e21b5f5260045ffd5b50604051600654815f6110eb83610b98565b80835292600181169081156111715750600114611112575b61110f92500382610b76565b90565b5060065f90815290917ff652222313e28459528d920b65115c16c04f3efc82aaedc97be59f3f377c0d3f5b81831061115557505090602061110f92820101611103565b602091935080600191548385880101520191019091839261113d565b6020925061110f94915060ff191682840152151560051b820101611103565b60ff81146111b45760ff811690601f82116110ca57604051916110b7604084610b76565b50604051600754815f6111c683610b98565b808352926001811690811561117157506001146111e95761110f92500382610b76565b5060075f90815290917fa66cc928b5edb82af9bd49922954155ab7b0942694bea4ce44661d9a8736c6885b81831061122c57505090602061110f92820101611103565b6020919350806001915483858801015201910190918392611214565b91907f7fffffffffffffffffffffffffffffff5d576e7357a4501ddfe92f46681b20a084116112bf579160209360809260ff5f9560405194855216868401526040830152606082015282805260015afa15610f7c575f516001600160a01b038116156112b557905f905f90565b505f906001905f90565b5050505f9160039190565b600481101561132a57806112dc575050565b600181036112f35763f645eedf60e01b5f5260045ffd5b6002810361130e575063fce698f760e01b5f5260045260245ffd5b6003146113185750565b6335e2f38360e21b5f5260045260245ffd5b634e487b7160e01b5f52602160045260245ffdfe6e1540171b6c0c960b71a7020d9f60077f6af931a8bbf590da0223dacf75c7afa2646970667358221220a695ccbd7f0d789c2bdba64fb94dd2db186cee91d262dca8005e323372cfd06564736f6c634300081e00332f658b440c35314f52658ea8a740e05b284cdc84dc9ae01e891f21b8933e7cad",
    "sourcePath": "/home/answorld/repos/CL8Y-Bridge-EVM-smartcontracts/src/TokenCl8yBridged.sol",
    "compiler": {
        "name": "solc",
        "version": "0.8.30+commit.73712a01"
    },
    "functionHashes": {
        "DOMAIN_SEPARATOR()": "3644e515",
        "ORIGIN_CHAIN_ID()": "0dd85b00",
        "allowance(address,address)": "dd62ed3e",
        "approve(address,uint256)": "095ea7b3",
        "authority()": "bf7e214f",
        "balanceOf(address)": "70a08231",
        "burn(uint256)": "42966c68",
        "burnFrom(address,uint256)": "79cc6790",
        "decimals()": "313ce567",
        "eip712Domain()": "84b0196e",
        "isConsumingScheduledOp()": "8fb36037",
        "logoLink()": "816e8179",
        "mint(address,uint256)": "40c10f19",
        "name()": "06fdde03",
        "nonces(address)": "7ecebe00",
        "permit(address,address,uint256,uint256,uint8,bytes32,bytes32)": "d505accf",
        "setAuthority(address)": "7a9e5e4b",
        "setLogoLink(string)": "43202c8b",
        "symbol()": "95d89b41",
        "totalSupply()": "18160ddd",
        "transfer(address,uint256)": "a9059cbb",
        "transferFrom(address,address,uint256)": "23b872dd"
    },
    "gasEstimates": {
        "creation": {
            "codeDepositCost": "1002400",
            "executionCost": "infinite",
            "totalCost": "infinite"
        },
        "external": {
            "DOMAIN_SEPARATOR()": "infinite",
            "ORIGIN_CHAIN_ID()": "infinite",
            "allowance(address,address)": "3024",
            "approve(address,uint256)": "24364",
            "authority()": "2690",
            "balanceOf(address)": "2617",
            "burn(uint256)": "50739",
            "burnFrom(address,uint256)": "75579",
            "decimals()": "255",
            "eip712Domain()": "infinite",
            "isConsumingScheduledOp()": "2667",
            "logoLink()": "infinite",
            "mint(address,uint256)": "infinite",
            "name()": "infinite",
            "nonces(address)": "2684",
            "permit(address,address,uint256,uint256,uint8,bytes32,bytes32)": "infinite",
            "setAuthority(address)": "28416",
            "setLogoLink(string)": "infinite",
            "symbol()": "infinite",
            "totalSupply()": "2314",
            "transfer(address,uint256)": "51142",
            "transferFrom(address,address,uint256)": "75605"
        }
    }
}